{
  "contractName": "ArbiCryptLocker",
  "abi": [
    {
      "inputs": [
        {
          "internalType": "contract IUniFactory",
          "name": "_uniswapFactory",
          "type": "address"
        }
      ],
      "stateMutability": "nonpayable",
      "type": "constructor"
    },
    {
      "anonymous": false,
      "inputs": [
        {
          "indexed": false,
          "internalType": "uint256",
          "name": "_id",
          "type": "uint256"
        },
        {
          "indexed": false,
          "internalType": "address",
          "name": "_tokenAddress",
          "type": "address"
        },
        {
          "indexed": false,
          "internalType": "address",
          "name": "_withdrawalAddress",
          "type": "address"
        },
        {
          "indexed": false,
          "internalType": "uint256",
          "name": "_amount",
          "type": "uint256"
        },
        {
          "indexed": false,
          "internalType": "uint256",
          "name": "_unlockTime",
          "type": "uint256"
        },
        {
          "indexed": false,
          "internalType": "uint256",
          "name": "_lockDate",
          "type": "uint256"
        },
        {
          "indexed": false,
          "internalType": "uint256",
          "name": "_lockType",
          "type": "uint256"
        },
        {
          "indexed": false,
          "internalType": "bool",
          "name": "_withdrawn",
          "type": "bool"
        }
      ],
      "name": "LogLock",
      "type": "event"
    },
    {
      "anonymous": false,
      "inputs": [
        {
          "indexed": false,
          "internalType": "address",
          "name": "SentToAddress",
          "type": "address"
        },
        {
          "indexed": false,
          "internalType": "uint256",
          "name": "AmountTransferred",
          "type": "uint256"
        }
      ],
      "name": "LogWithdrawal",
      "type": "event"
    },
    {
      "anonymous": false,
      "inputs": [
        {
          "indexed": true,
          "internalType": "address",
          "name": "previousOwner",
          "type": "address"
        },
        {
          "indexed": true,
          "internalType": "address",
          "name": "newOwner",
          "type": "address"
        }
      ],
      "name": "OwnershipTransferred",
      "type": "event"
    },
    {
      "inputs": [],
      "name": "_arbicryptLockerAddress",
      "outputs": [
        {
          "internalType": "address",
          "name": "",
          "type": "address"
        }
      ],
      "stateMutability": "view",
      "type": "function",
      "constant": true
    },
    {
      "inputs": [
        {
          "internalType": "uint256",
          "name": "",
          "type": "uint256"
        }
      ],
      "name": "allDepositIds",
      "outputs": [
        {
          "internalType": "uint256",
          "name": "",
          "type": "uint256"
        }
      ],
      "stateMutability": "view",
      "type": "function",
      "constant": true
    },
    {
      "inputs": [],
      "name": "depositId",
      "outputs": [
        {
          "internalType": "uint256",
          "name": "",
          "type": "uint256"
        }
      ],
      "stateMutability": "view",
      "type": "function",
      "constant": true
    },
    {
      "inputs": [
        {
          "internalType": "address",
          "name": "",
          "type": "address"
        },
        {
          "internalType": "uint256",
          "name": "",
          "type": "uint256"
        }
      ],
      "name": "depositsByTokenAddress",
      "outputs": [
        {
          "internalType": "uint256",
          "name": "",
          "type": "uint256"
        }
      ],
      "stateMutability": "view",
      "type": "function",
      "constant": true
    },
    {
      "inputs": [
        {
          "internalType": "address",
          "name": "",
          "type": "address"
        },
        {
          "internalType": "uint256",
          "name": "",
          "type": "uint256"
        }
      ],
      "name": "depositsByWithdrawalAddress",
      "outputs": [
        {
          "internalType": "uint256",
          "name": "",
          "type": "uint256"
        }
      ],
      "stateMutability": "view",
      "type": "function",
      "constant": true
    },
    {
      "inputs": [],
      "name": "ethFee",
      "outputs": [
        {
          "internalType": "uint256",
          "name": "",
          "type": "uint256"
        }
      ],
      "stateMutability": "view",
      "type": "function",
      "constant": true
    },
    {
      "inputs": [
        {
          "internalType": "uint256",
          "name": "",
          "type": "uint256"
        }
      ],
      "name": "lockedToken",
      "outputs": [
        {
          "internalType": "address",
          "name": "tokenAddress",
          "type": "address"
        },
        {
          "internalType": "address",
          "name": "withdrawalAddress",
          "type": "address"
        },
        {
          "internalType": "uint256",
          "name": "tokenAmount",
          "type": "uint256"
        },
        {
          "internalType": "uint256",
          "name": "unlockTime",
          "type": "uint256"
        },
        {
          "internalType": "uint256",
          "name": "lockDate",
          "type": "uint256"
        },
        {
          "internalType": "uint256",
          "name": "lockType",
          "type": "uint256"
        },
        {
          "internalType": "bool",
          "name": "withdrawn",
          "type": "bool"
        }
      ],
      "stateMutability": "view",
      "type": "function",
      "constant": true
    },
    {
      "inputs": [],
      "name": "owner",
      "outputs": [
        {
          "internalType": "address",
          "name": "",
          "type": "address"
        }
      ],
      "stateMutability": "view",
      "type": "function",
      "constant": true
    },
    {
      "inputs": [],
      "name": "renounceOwnership",
      "outputs": [],
      "stateMutability": "nonpayable",
      "type": "function"
    },
    {
      "inputs": [
        {
          "internalType": "address",
          "name": "newOwner",
          "type": "address"
        }
      ],
      "name": "transferOwnership",
      "outputs": [],
      "stateMutability": "nonpayable",
      "type": "function"
    },
    {
      "inputs": [],
      "name": "uniswapFactory",
      "outputs": [
        {
          "internalType": "contract IUniFactory",
          "name": "",
          "type": "address"
        }
      ],
      "stateMutability": "view",
      "type": "function",
      "constant": true
    },
    {
      "inputs": [
        {
          "internalType": "address",
          "name": "",
          "type": "address"
        },
        {
          "internalType": "address",
          "name": "",
          "type": "address"
        }
      ],
      "name": "walletTokenBalance",
      "outputs": [
        {
          "internalType": "uint256",
          "name": "",
          "type": "uint256"
        }
      ],
      "stateMutability": "view",
      "type": "function",
      "constant": true
    },
    {
      "inputs": [
        {
          "internalType": "uint256",
          "name": "_ethFeeInWei",
          "type": "uint256"
        }
      ],
      "name": "setFees",
      "outputs": [],
      "stateMutability": "nonpayable",
      "type": "function"
    },
    {
      "inputs": [
        {
          "internalType": "address",
          "name": "_tokenAddress",
          "type": "address"
        },
        {
          "internalType": "address",
          "name": "_withdrawalAddress",
          "type": "address"
        },
        {
          "internalType": "uint256",
          "name": "_amount",
          "type": "uint256"
        },
        {
          "internalType": "uint256",
          "name": "_unlockTime",
          "type": "uint256"
        },
        {
          "internalType": "uint256",
          "name": "_lockType",
          "type": "uint256"
        }
      ],
      "name": "lockTokens",
      "outputs": [
        {
          "internalType": "uint256",
          "name": "_id",
          "type": "uint256"
        }
      ],
      "stateMutability": "payable",
      "type": "function",
      "payable": true
    },
    {
      "inputs": [
        {
          "internalType": "address",
          "name": "_tokenAddress",
          "type": "address"
        },
        {
          "internalType": "address",
          "name": "_withdrawalAddress",
          "type": "address"
        },
        {
          "internalType": "uint256",
          "name": "_lockType",
          "type": "uint256"
        },
        {
          "internalType": "uint256[]",
          "name": "_amounts",
          "type": "uint256[]"
        },
        {
          "internalType": "uint256[]",
          "name": "_unlockTimes",
          "type": "uint256[]"
        }
      ],
      "name": "createMultipleLocks",
      "outputs": [
        {
          "internalType": "uint256",
          "name": "_id",
          "type": "uint256"
        }
      ],
      "stateMutability": "payable",
      "type": "function",
      "payable": true
    },
    {
      "inputs": [
        {
          "internalType": "uint256",
          "name": "_id",
          "type": "uint256"
        },
        {
          "internalType": "uint256",
          "name": "_unlockTime",
          "type": "uint256"
        }
      ],
      "name": "extendLockDuration",
      "outputs": [],
      "stateMutability": "nonpayable",
      "type": "function"
    },
    {
      "inputs": [
        {
          "internalType": "uint256",
          "name": "_id",
          "type": "uint256"
        },
        {
          "internalType": "address",
          "name": "_receiverAddress",
          "type": "address"
        }
      ],
      "name": "transferLocks",
      "outputs": [],
      "stateMutability": "nonpayable",
      "type": "function"
    },
    {
      "inputs": [
        {
          "internalType": "uint256",
          "name": "_id",
          "type": "uint256"
        }
      ],
      "name": "withdrawTokens",
      "outputs": [],
      "stateMutability": "nonpayable",
      "type": "function"
    },
    {
      "inputs": [
        {
          "internalType": "address payable",
          "name": "_devaddr",
          "type": "address"
        }
      ],
      "name": "setDev",
      "outputs": [],
      "stateMutability": "nonpayable",
      "type": "function"
    },
    {
      "inputs": [
        {
          "internalType": "address",
          "name": "_tokenAddress",
          "type": "address"
        }
      ],
      "name": "getTotalTokenBalance",
      "outputs": [
        {
          "internalType": "uint256",
          "name": "",
          "type": "uint256"
        }
      ],
      "stateMutability": "view",
      "type": "function",
      "constant": true
    },
    {
      "inputs": [
        {
          "internalType": "address",
          "name": "_tokenAddress",
          "type": "address"
        },
        {
          "internalType": "address",
          "name": "_walletAddress",
          "type": "address"
        }
      ],
      "name": "getTokenBalanceByAddress",
      "outputs": [
        {
          "internalType": "uint256",
          "name": "",
          "type": "uint256"
        }
      ],
      "stateMutability": "view",
      "type": "function",
      "constant": true
    },
    {
      "inputs": [],
      "name": "getAllDepositIds",
      "outputs": [
        {
          "internalType": "uint256[]",
          "name": "",
          "type": "uint256[]"
        }
      ],
      "stateMutability": "view",
      "type": "function",
      "constant": true
    },
    {
      "inputs": [
        {
          "internalType": "uint256",
          "name": "_id",
          "type": "uint256"
        }
      ],
      "name": "getDepositDetailsById",
      "outputs": [
        {
          "internalType": "address",
          "name": "_tokenAddress",
          "type": "address"
        },
        {
          "internalType": "address",
          "name": "_withdrawalAddress",
          "type": "address"
        },
        {
          "internalType": "uint256",
          "name": "_tokenAmount",
          "type": "uint256"
        },
        {
          "internalType": "uint256",
          "name": "_unlockTime",
          "type": "uint256"
        },
        {
          "internalType": "uint256",
          "name": "_lockDate",
          "type": "uint256"
        },
        {
          "internalType": "uint256",
          "name": "_lockType",
          "type": "uint256"
        },
        {
          "internalType": "bool",
          "name": "_withdrawn",
          "type": "bool"
        }
      ],
      "stateMutability": "view",
      "type": "function",
      "constant": true
    },
    {
      "inputs": [
        {
          "internalType": "address",
          "name": "_tokenAddress",
          "type": "address"
        }
      ],
      "name": "getDepositDetailsByAddress",
      "outputs": [
        {
          "internalType": "address",
          "name": "_tokenAddress_",
          "type": "address"
        },
        {
          "internalType": "address",
          "name": "_withdrawalAddress",
          "type": "address"
        },
        {
          "internalType": "uint256",
          "name": "_tokenAmount",
          "type": "uint256"
        },
        {
          "internalType": "uint256",
          "name": "_unlockTime",
          "type": "uint256"
        },
        {
          "internalType": "uint256",
          "name": "_lockDate",
          "type": "uint256"
        },
        {
          "internalType": "uint256",
          "name": "_lockType",
          "type": "uint256"
        },
        {
          "internalType": "bool",
          "name": "_withdrawn",
          "type": "bool"
        }
      ],
      "stateMutability": "view",
      "type": "function",
      "constant": true
    },
    {
      "inputs": [],
      "name": "getTotalLockedTokens",
      "outputs": [
        {
          "internalType": "uint256",
          "name": "",
          "type": "uint256"
        }
      ],
      "stateMutability": "view",
      "type": "function",
      "constant": true
    },
    {
      "inputs": [
        {
          "internalType": "address",
          "name": "_withdrawalAddress",
          "type": "address"
        }
      ],
      "name": "getTotalLockedTokensByWithdrawalAddress",
      "outputs": [
        {
          "internalType": "uint256",
          "name": "",
          "type": "uint256"
        }
      ],
      "stateMutability": "view",
      "type": "function",
      "constant": true
    },
    {
      "inputs": [
        {
          "internalType": "address",
          "name": "_tokenAddress",
          "type": "address"
        }
      ],
      "name": "getTotalLockedTokensByTokenAddress",
      "outputs": [
        {
          "internalType": "uint256",
          "name": "",
          "type": "uint256"
        }
      ],
      "stateMutability": "view",
      "type": "function",
      "constant": true
    },
    {
      "inputs": [
        {
          "internalType": "address",
          "name": "_withdrawalAddress",
          "type": "address"
        }
      ],
      "name": "getDepositsByWithdrawalAddress",
      "outputs": [
        {
          "internalType": "uint256[]",
          "name": "",
          "type": "uint256[]"
        }
      ],
      "stateMutability": "view",
      "type": "function",
      "constant": true
    },
    {
      "inputs": [
        {
          "internalType": "address",
          "name": "_tokenAddress",
          "type": "address"
        }
      ],
      "name": "getDepositsByTokenAddress",
      "outputs": [
        {
          "internalType": "uint256[]",
          "name": "",
          "type": "uint256[]"
        }
      ],
      "stateMutability": "view",
      "type": "function",
      "constant": true
    },
    {
      "inputs": [],
      "name": "getTimeNow",
      "outputs": [
        {
          "internalType": "uint256",
          "name": "",
          "type": "uint256"
        }
      ],
      "stateMutability": "view",
      "type": "function",
      "constant": true
    }
  ],
  "bytecode": "0x608060405230600260006101000a81548173ffffffffffffffffffffffffffffffffffffffff021916908373ffffffffffffffffffffffffffffffffffffffff1602179055503480156200005257600080fd5b5060405162004d6438038062004d64833981810160405281019062000078919062000252565b620000986200008c6200014660201b60201c565b6200014e60201b60201c565b6001808190555080600360006101000a81548173ffffffffffffffffffffffffffffffffffffffff021916908373ffffffffffffffffffffffffffffffffffffffff160217905550620000f06200021260201b60201c565b600660006101000a81548173ffffffffffffffffffffffffffffffffffffffff021916908373ffffffffffffffffffffffffffffffffffffffff16021790555067010a741a4627800060078190555050620002e0565b600033905090565b60008060009054906101000a900473ffffffffffffffffffffffffffffffffffffffff169050816000806101000a81548173ffffffffffffffffffffffffffffffffffffffff021916908373ffffffffffffffffffffffffffffffffffffffff1602179055508173ffffffffffffffffffffffffffffffffffffffff168173ffffffffffffffffffffffffffffffffffffffff167f8be0079c531659141344cd1fd0a4f28419497f9722a3daafe3b4186f6b6457e060405160405180910390a35050565b60008060009054906101000a900473ffffffffffffffffffffffffffffffffffffffff16905090565b6000815190506200024c81620002c6565b92915050565b6000602082840312156200026557600080fd5b600062000275848285016200023b565b91505092915050565b60006200028b82620002a6565b9050919050565b60006200029f826200027e565b9050919050565b600073ffffffffffffffffffffffffffffffffffffffff82169050919050565b620002d18162000292565b8114620002dd57600080fd5b50565b614a7480620002f06000396000f3fe6080604052600436106101cd5760003560e01c80638bdb2afa116100f7578063b9e7df1c11610095578063c9028aff11610064578063c9028aff146106f6578063d477f05f14610733578063e7744d851461075c578063f2fde38b14610799576101cd565b8063b9e7df1c1461061b578063ba9b5ae614610658578063bb941cff14610683578063c1d1a333146106c6576101cd565b8063a0ed3ac5116100d1578063a0ed3ac514610546578063aaf21ec814610571578063adad19bd146105a1578063b2b5827c146105de576101cd565b80638bdb2afa146104c55780638da5cb5b146104f05780639852099c1461051b576101cd565b80634cf1115d1161016f57806376704de01161013e57806376704de0146103d957806378b7d7951461040257806384f437db1461044557806386f65a2214610488576101cd565b80634cf1115d1461032f578063530680d81461035a5780636ba0392414610397578063715018a6146103c2576101cd565b8063347c80ba116101ab578063347c80ba146102635780633d18678e146102a05780633fd97b9b146102c95780634c5f7f5414610306576101cd565b80630a350695146101d25780630bd59ad3146101fd578063315a095d1461023a575b600080fd5b3480156101de57600080fd5b506101e76107c2565b6040516101f49190613f3b565b60405180910390f35b34801561020957600080fd5b50610224600480360381019061021f9190613946565b6107e8565b604051610231919061404e565b60405180910390f35b34801561024657600080fd5b50610261600480360381019061025c9190613b80565b61087f565b005b34801561026f57600080fd5b5061028a600480360381019061028591906139c1565b6110cc565b604051610297919061428b565b60405180910390f35b3480156102ac57600080fd5b506102c760048036038101906102c29190613b80565b611153565b005b3480156102d557600080fd5b506102f060048036038101906102eb9190613b1b565b6111d9565b6040516102fd919061428b565b60405180910390f35b34801561031257600080fd5b5061032d60048036038101906103289190613bd2565b61120a565b005b34801561033b57600080fd5b50610344611a97565b604051610351919061428b565b60405180910390f35b34801561036657600080fd5b50610381600480360381019061037c9190613b1b565b611a9d565b60405161038e919061428b565b60405180910390f35b3480156103a357600080fd5b506103ac611ace565b6040516103b9919061404e565b60405180910390f35b3480156103ce57600080fd5b506103d7611b26565b005b3480156103e557600080fd5b5061040060048036038101906103fb9190613c0e565b611bae565b005b34801561040e57600080fd5b5061042960048036038101906104249190613b80565b611dc9565b60405161043c9796959493929190613fb6565b60405180910390f35b34801561045157600080fd5b5061046c60048036038101906104679190613946565b611edb565b60405161047f9796959493929190613fb6565b60405180910390f35b34801561049457600080fd5b506104af60048036038101906104aa9190613946565b612074565b6040516104bc919061404e565b60405180910390f35b3480156104d157600080fd5b506104da61210b565b6040516104e79190614070565b60405180910390f35b3480156104fc57600080fd5b50610505612131565b6040516105129190613f3b565b60405180910390f35b34801561052757600080fd5b5061053061215a565b60405161053d919061428b565b60405180910390f35b34801561055257600080fd5b5061055b612160565b604051610568919061428b565b60405180910390f35b61058b600480360381019061058691906139fd565b61216d565b604051610598919061428b565b60405180910390f35b3480156105ad57600080fd5b506105c860048036038101906105c39190613946565b612ac9565b6040516105d5919061428b565b60405180910390f35b3480156105ea57600080fd5b5061060560048036038101906106009190613946565b612b7d565b604051610612919061428b565b60405180910390f35b34801561062757600080fd5b50610642600480360381019061063d91906139c1565b612bc9565b60405161064f919061428b565b60405180910390f35b34801561066457600080fd5b5061066d612bee565b60405161067a919061428b565b60405180910390f35b34801561068f57600080fd5b506106aa60048036038101906106a59190613b80565b612bf6565b6040516106bd9796959493929190613fb6565b60405180910390f35b6106e060048036038101906106db9190613aa4565b612c85565b6040516106ed919061428b565b60405180910390f35b34801561070257600080fd5b5061071d60048036038101906107189190613b80565b613512565b60405161072a919061428b565b60405180910390f35b34801561073f57600080fd5b5061075a60048036038101906107559190613998565b613536565b005b34801561076857600080fd5b50610783600480360381019061077e9190613946565b6135f6565b604051610790919061428b565b60405180910390f35b3480156107a557600080fd5b506107c060048036038101906107bb9190613946565b613642565b005b600260009054906101000a900473ffffffffffffffffffffffffffffffffffffffff1681565b6060600860008373ffffffffffffffffffffffffffffffffffffffff1673ffffffffffffffffffffffffffffffffffffffff16815260200190815260200160002080548060200260200160405190810160405280929190818152602001828054801561087357602002820191906000526020600020905b81548152602001906001019080831161085f575b50505050509050919050565b600260015414156108c5576040517f08c379a00000000000000000000000000000000000000000000000000000000081526004016108bc9061426b565b60405180910390fd5b600260018190555042600a60008381526020019081526020016000206003015410610925576040517f08c379a000000000000000000000000000000000000000000000000000000000815260040161091c9061424b565b60405180910390fd5b600a600082815260200190815260200160002060010160009054906101000a900473ffffffffffffffffffffffffffffffffffffffff1673ffffffffffffffffffffffffffffffffffffffff163373ffffffffffffffffffffffffffffffffffffffff16146109c9576040517f08c379a00000000000000000000000000000000000000000000000000000000081526004016109c09061420b565b60405180910390fd5b600a600082815260200190815260200160002060060160009054906101000a900460ff1615610a2d576040517f08c379a0000000000000000000000000000000000000000000000000000000008152600401610a249061422b565b60405180910390fd5b6001600a600083815260200190815260200160002060060160006101000a81548160ff021916908315150217905550610b37600a600083815260200190815260200160002060020154600b6000600a600086815260200190815260200160002060000160009054906101000a900473ffffffffffffffffffffffffffffffffffffffff1673ffffffffffffffffffffffffffffffffffffffff1673ffffffffffffffffffffffffffffffffffffffff16815260200190815260200160002060003373ffffffffffffffffffffffffffffffffffffffff1673ffffffffffffffffffffffffffffffffffffffff1681526020019081526020016000205461373a90919063ffffffff16565b600b6000600a600085815260200190815260200160002060000160009054906101000a900473ffffffffffffffffffffffffffffffffffffffff1673ffffffffffffffffffffffffffffffffffffffff1673ffffffffffffffffffffffffffffffffffffffff16815260200190815260200160002060003373ffffffffffffffffffffffffffffffffffffffff1673ffffffffffffffffffffffffffffffffffffffff1681526020019081526020016000208190555060008060086000600a600086815260200190815260200160002060010160009054906101000a900473ffffffffffffffffffffffffffffffffffffffff1673ffffffffffffffffffffffffffffffffffffffff1673ffffffffffffffffffffffffffffffffffffffff168152602001908152602001600020805490509050600091505b80821015610f8f578260086000600a600087815260200190815260200160002060010160009054906101000a900473ffffffffffffffffffffffffffffffffffffffff1673ffffffffffffffffffffffffffffffffffffffff1673ffffffffffffffffffffffffffffffffffffffff1681526020019081526020016000208381548110610d26577f4e487b7100000000000000000000000000000000000000000000000000000000600052603260045260246000fd5b90600052602060002001541415610f7c5760086000600a600086815260200190815260200160002060010160009054906101000a900473ffffffffffffffffffffffffffffffffffffffff1673ffffffffffffffffffffffffffffffffffffffff1673ffffffffffffffffffffffffffffffffffffffff168152602001908152602001600020600182610db99190614415565b81548110610df0577f4e487b7100000000000000000000000000000000000000000000000000000000600052603260045260246000fd5b906000526020600020015460086000600a600087815260200190815260200160002060010160009054906101000a900473ffffffffffffffffffffffffffffffffffffffff1673ffffffffffffffffffffffffffffffffffffffff1673ffffffffffffffffffffffffffffffffffffffff1681526020019081526020016000208381548110610ea8577f4e487b7100000000000000000000000000000000000000000000000000000000600052603260045260246000fd5b906000526020600020018190555060086000600a600086815260200190815260200160002060010160009054906101000a900473ffffffffffffffffffffffffffffffffffffffff1673ffffffffffffffffffffffffffffffffffffffff1673ffffffffffffffffffffffffffffffffffffffff168152602001908152602001600020805480610f61577f4e487b7100000000000000000000000000000000000000000000000000000000600052603160045260246000fd5b60019003818190600052602060002001600090559055610f8f565b8180610f87906144f8565b925050610c70565b600a600084815260200190815260200160002060000160009054906101000a900473ffffffffffffffffffffffffffffffffffffffff1673ffffffffffffffffffffffffffffffffffffffff1663a9059cbb33600a6000878152602001908152602001600020600201546040518363ffffffff1660e01b8152600401611016929190614025565b602060405180830381600087803b15801561103057600080fd5b505af1158015611044573d6000803e3d6000fd5b505050506040513d601f19601f820116820180604052508101906110689190613b57565b61107157600080fd5b7fb4214c8c54fc7442f36d3682f59aebaf09358a4431835b30efb29d52cf9e1e9133600a6000868152602001908152602001600020600201546040516110b8929190614025565b60405180910390a150506001808190555050565b6000600b60008473ffffffffffffffffffffffffffffffffffffffff1673ffffffffffffffffffffffffffffffffffffffff16815260200190815260200160002060008373ffffffffffffffffffffffffffffffffffffffff1673ffffffffffffffffffffffffffffffffffffffff16815260200190815260200160002054905092915050565b61115b613750565b73ffffffffffffffffffffffffffffffffffffffff16611179612131565b73ffffffffffffffffffffffffffffffffffffffff16146111cf576040517f08c379a00000000000000000000000000000000000000000000000000000000081526004016111c6906141ab565b60405180910390fd5b8060078190555050565b600960205281600052604060002081815481106111f557600080fd5b90600052602060002001600091509150505481565b600a600083815260200190815260200160002060060160009054906101000a900460ff161561126e576040517f08c379a00000000000000000000000000000000000000000000000000000000081526004016112659061422b565b60405180910390fd5b600a600083815260200190815260200160002060010160009054906101000a900473ffffffffffffffffffffffffffffffffffffffff1673ffffffffffffffffffffffffffffffffffffffff163373ffffffffffffffffffffffffffffffffffffffff1614611312576040517f08c379a00000000000000000000000000000000000000000000000000000000081526004016113099061420b565b60405180910390fd5b6113ed600a600084815260200190815260200160002060020154600b6000600a600087815260200190815260200160002060000160009054906101000a900473ffffffffffffffffffffffffffffffffffffffff1673ffffffffffffffffffffffffffffffffffffffff1673ffffffffffffffffffffffffffffffffffffffff16815260200190815260200160002060003373ffffffffffffffffffffffffffffffffffffffff1673ffffffffffffffffffffffffffffffffffffffff1681526020019081526020016000205461373a90919063ffffffff16565b600b6000600a600086815260200190815260200160002060000160009054906101000a900473ffffffffffffffffffffffffffffffffffffffff1673ffffffffffffffffffffffffffffffffffffffff1673ffffffffffffffffffffffffffffffffffffffff16815260200190815260200160002060003373ffffffffffffffffffffffffffffffffffffffff1673ffffffffffffffffffffffffffffffffffffffff1681526020019081526020016000208190555061157e600a600084815260200190815260200160002060020154600b6000600a600087815260200190815260200160002060000160009054906101000a900473ffffffffffffffffffffffffffffffffffffffff1673ffffffffffffffffffffffffffffffffffffffff1673ffffffffffffffffffffffffffffffffffffffff16815260200190815260200160002060008473ffffffffffffffffffffffffffffffffffffffff1673ffffffffffffffffffffffffffffffffffffffff1681526020019081526020016000205461375890919063ffffffff16565b600b6000600a600086815260200190815260200160002060000160009054906101000a900473ffffffffffffffffffffffffffffffffffffffff1673ffffffffffffffffffffffffffffffffffffffff1673ffffffffffffffffffffffffffffffffffffffff16815260200190815260200160002060008373ffffffffffffffffffffffffffffffffffffffff1673ffffffffffffffffffffffffffffffffffffffff1681526020019081526020016000208190555060008060086000600a600087815260200190815260200160002060010160009054906101000a900473ffffffffffffffffffffffffffffffffffffffff1673ffffffffffffffffffffffffffffffffffffffff1673ffffffffffffffffffffffffffffffffffffffff168152602001908152602001600020805490509050600091505b808210156119d6578360086000600a600088815260200190815260200160002060010160009054906101000a900473ffffffffffffffffffffffffffffffffffffffff1673ffffffffffffffffffffffffffffffffffffffff1673ffffffffffffffffffffffffffffffffffffffff168152602001908152602001600020838154811061176d577f4e487b7100000000000000000000000000000000000000000000000000000000600052603260045260246000fd5b906000526020600020015414156119c35760086000600a600087815260200190815260200160002060010160009054906101000a900473ffffffffffffffffffffffffffffffffffffffff1673ffffffffffffffffffffffffffffffffffffffff1673ffffffffffffffffffffffffffffffffffffffff1681526020019081526020016000206001826118009190614415565b81548110611837577f4e487b7100000000000000000000000000000000000000000000000000000000600052603260045260246000fd5b906000526020600020015460086000600a600088815260200190815260200160002060010160009054906101000a900473ffffffffffffffffffffffffffffffffffffffff1673ffffffffffffffffffffffffffffffffffffffff1673ffffffffffffffffffffffffffffffffffffffff16815260200190815260200160002083815481106118ef577f4e487b7100000000000000000000000000000000000000000000000000000000600052603260045260246000fd5b906000526020600020018190555060086000600a600087815260200190815260200160002060010160009054906101000a900473ffffffffffffffffffffffffffffffffffffffff1673ffffffffffffffffffffffffffffffffffffffff1673ffffffffffffffffffffffffffffffffffffffff1681526020019081526020016000208054806119a8577f4e487b7100000000000000000000000000000000000000000000000000000000600052603160045260246000fd5b600190038181906000526020600020016000905590556119d6565b81806119ce906144f8565b9250506116b7565b82600a600086815260200190815260200160002060010160006101000a81548173ffffffffffffffffffffffffffffffffffffffff021916908373ffffffffffffffffffffffffffffffffffffffff160217905550600860008473ffffffffffffffffffffffffffffffffffffffff1673ffffffffffffffffffffffffffffffffffffffff16815260200190815260200160002084908060018154018082558091505060019003906000526020600020016000909190919091505550505050565b60075481565b60086020528160005260406000208181548110611ab957600080fd5b90600052602060002001600091509150505481565b60606005805480602002602001604051908101604052809291908181526020018280548015611b1c57602002820191906000526020600020905b815481526020019060010190808311611b08575b5050505050905090565b611b2e613750565b73ffffffffffffffffffffffffffffffffffffffff16611b4c612131565b73ffffffffffffffffffffffffffffffffffffffff1614611ba2576040517f08c379a0000000000000000000000000000000000000000000000000000000008152600401611b99906141ab565b60405180910390fd5b611bac600061376e565b565b60026001541415611bf4576040517f08c379a0000000000000000000000000000000000000000000000000000000008152600401611beb9061426b565b60405180910390fd5b60026001819055506402540be4008110611c43576040517f08c379a0000000000000000000000000000000000000000000000000000000008152600401611c3a906140eb565b60405180910390fd5b600a6000838152602001908152602001600020600301548111611c9b576040517f08c379a0000000000000000000000000000000000000000000000000000000008152600401611c92906141eb565b60405180910390fd5b600a600083815260200190815260200160002060060160009054906101000a900460ff1615611cff576040517f08c379a0000000000000000000000000000000000000000000000000000000008152600401611cf69061408b565b60405180910390fd5b600a600083815260200190815260200160002060010160009054906101000a900473ffffffffffffffffffffffffffffffffffffffff1673ffffffffffffffffffffffffffffffffffffffff163373ffffffffffffffffffffffffffffffffffffffff1614611da3576040517f08c379a0000000000000000000000000000000000000000000000000000000008152600401611d9a9061420b565b60405180910390fd5b80600a600084815260200190815260200160002060030181905550600180819055505050565b6000806000806000806000600a600089815260200190815260200160002060000160009054906101000a900473ffffffffffffffffffffffffffffffffffffffff16600a60008a815260200190815260200160002060010160009054906101000a900473ffffffffffffffffffffffffffffffffffffffff16600a60008b815260200190815260200160002060020154600a60008c815260200190815260200160002060030154600a60008d815260200190815260200160002060040154600a60008e815260200190815260200160002060050154600a60008f815260200190815260200160002060060160009054906101000a900460ff169650965096509650965096509650919395979092949650565b600080600080600080600080600960008a73ffffffffffffffffffffffffffffffffffffffff1673ffffffffffffffffffffffffffffffffffffffff168152602001908152602001600020600081548110611f5f577f4e487b7100000000000000000000000000000000000000000000000000000000600052603260045260246000fd5b90600052602060002001549050600a600082815260200190815260200160002060000160009054906101000a900473ffffffffffffffffffffffffffffffffffffffff16600a600083815260200190815260200160002060010160009054906101000a900473ffffffffffffffffffffffffffffffffffffffff16600a600084815260200190815260200160002060020154600a600085815260200190815260200160002060030154600a600086815260200190815260200160002060040154600a600087815260200190815260200160002060050154600a600088815260200190815260200160002060060160009054906101000a900460ff16975097509750975097509750975050919395979092949650565b6060600960008373ffffffffffffffffffffffffffffffffffffffff1673ffffffffffffffffffffffffffffffffffffffff1681526020019081526020016000208054806020026020016040519081016040528092919081815260200182805480156120ff57602002820191906000526020600020905b8154815260200190600101908083116120eb575b50505050509050919050565b600360009054906101000a900473ffffffffffffffffffffffffffffffffffffffff1681565b60008060009054906101000a900473ffffffffffffffffffffffffffffffffffffffff16905090565b60045481565b6000600580549050905090565b6000600260015414156121b5576040517f08c379a00000000000000000000000000000000000000000000000000000000081526004016121ac9061426b565b60405180910390fd5b60026001819055506000835111612201576040517f08c379a00000000000000000000000000000000000000000000000000000000081526004016121f89061418b565b60405180910390fd5b8151835114612245576040517f08c379a000000000000000000000000000000000000000000000000000000000815260040161223c906141cb565b60405180910390fd5b6007543414612289576040517f08c379a0000000000000000000000000000000000000000000000000000000008152600401612280906140ab565b60405180910390fd5b600660009054906101000a900473ffffffffffffffffffffffffffffffffffffffff1673ffffffffffffffffffffffffffffffffffffffff166108fc6007549081150290604051600060405180830381858888f193505050501580156122f3573d6000803e3d6000fd5b50600184141561251e5760008690506000600360009054906101000a900473ffffffffffffffffffffffffffffffffffffffff1673ffffffffffffffffffffffffffffffffffffffff1663e6a439058373ffffffffffffffffffffffffffffffffffffffff16630dfe16816040518163ffffffff1660e01b815260040160206040518083038186803b15801561238857600080fd5b505afa15801561239c573d6000803e3d6000fd5b505050506040513d601f19601f820116820180604052508101906123c0919061396f565b8473ffffffffffffffffffffffffffffffffffffffff1663d21220a76040518163ffffffff1660e01b815260040160206040518083038186803b15801561240657600080fd5b505afa15801561241a573d6000803e3d6000fd5b505050506040513d601f19601f8201168201806040525081019061243e919061396f565b6040518363ffffffff1660e01b815260040161245b929190613f56565b60206040518083038186803b15801561247357600080fd5b505afa158015612487573d6000803e3d6000fd5b505050506040513d601f19601f820116820180604052508101906124ab919061396f565b90508773ffffffffffffffffffffffffffffffffffffffff168173ffffffffffffffffffffffffffffffffffffffff161461251b576040517f08c379a00000000000000000000000000000000000000000000000000000000081526004016125129061416b565b60405180910390fd5b50505b60005b8351811015612ab8576000848281518110612565577f4e487b7100000000000000000000000000000000000000000000000000000000600052603260045260246000fd5b60200260200101511161257757600080fd5b6126468482815181106125b3577f4e487b7100000000000000000000000000000000000000000000000000000000600052603260045260246000fd5b6020026020010151600b60008a73ffffffffffffffffffffffffffffffffffffffff1673ffffffffffffffffffffffffffffffffffffffff16815260200190815260200160002060008973ffffffffffffffffffffffffffffffffffffffff1673ffffffffffffffffffffffffffffffffffffffff1681526020019081526020016000205461375890919063ffffffff16565b600b60008973ffffffffffffffffffffffffffffffffffffffff1673ffffffffffffffffffffffffffffffffffffffff16815260200190815260200160002060008873ffffffffffffffffffffffffffffffffffffffff1673ffffffffffffffffffffffffffffffffffffffff168152602001908152602001600020819055506004600081546126d5906144f8565b919050819055915086600a600084815260200190815260200160002060000160006101000a81548173ffffffffffffffffffffffffffffffffffffffff021916908373ffffffffffffffffffffffffffffffffffffffff16021790555085600a600084815260200190815260200160002060010160006101000a81548173ffffffffffffffffffffffffffffffffffffffff021916908373ffffffffffffffffffffffffffffffffffffffff1602179055508381815181106127c0577f4e487b7100000000000000000000000000000000000000000000000000000000600052603260045260246000fd5b6020026020010151600a60008481526020019081526020016000206002018190555082818151811061281b577f4e487b7100000000000000000000000000000000000000000000000000000000600052603260045260246000fd5b6020026020010151600a60008481526020019081526020016000206003018190555042600a60008481526020019081526020016000206004018190555084600a6000848152602001908152602001600020600501819055506000600a600084815260200190815260200160002060060160006101000a81548160ff0219169083151502179055506005829080600181540180825580915050600190039060005260206000200160009091909190915055600860008773ffffffffffffffffffffffffffffffffffffffff1673ffffffffffffffffffffffffffffffffffffffff168152602001908152602001600020829080600181540180825580915050600190039060005260206000200160009091909190915055600960008873ffffffffffffffffffffffffffffffffffffffff1673ffffffffffffffffffffffffffffffffffffffff1681526020019081526020016000208290806001815401808255809150506001900390600052602060002001600090919091909150558673ffffffffffffffffffffffffffffffffffffffff166323b872dd33898785815181106129ee577f4e487b7100000000000000000000000000000000000000000000000000000000600052603260045260246000fd5b60200260200101516040518463ffffffff1660e01b8152600401612a1493929190613f7f565b602060405180830381600087803b158015612a2e57600080fd5b505af1158015612a42573d6000803e3d6000fd5b505050506040513d601f19601f82011682018060405250810190612a669190613b57565b612aa5576040517f08c379a0000000000000000000000000000000000000000000000000000000008152600401612a9c9061412b565b60405180910390fd5b8080612ab0906144f8565b915050612521565b506001808190555095945050505050565b60008173ffffffffffffffffffffffffffffffffffffffff166370a08231600260009054906101000a900473ffffffffffffffffffffffffffffffffffffffff166040518263ffffffff1660e01b8152600401612b269190613f3b565b60206040518083038186803b158015612b3e57600080fd5b505afa158015612b52573d6000803e3d6000fd5b505050506040513d601f19601f82011682018060405250810190612b769190613ba9565b9050919050565b6000600960008373ffffffffffffffffffffffffffffffffffffffff1673ffffffffffffffffffffffffffffffffffffffff168152602001908152602001600020805490509050919050565b600b602052816000526040600020602052806000526040600020600091509150505481565b600042905090565b600a6020528060005260406000206000915090508060000160009054906101000a900473ffffffffffffffffffffffffffffffffffffffff16908060010160009054906101000a900473ffffffffffffffffffffffffffffffffffffffff16908060020154908060030154908060040154908060050154908060060160009054906101000a900460ff16905087565b600060026001541415612ccd576040517f08c379a0000000000000000000000000000000000000000000000000000000008152600401612cc49061426b565b60405180910390fd5b600260018190555060008211612d18576040517f08c379a0000000000000000000000000000000000000000000000000000000008152600401612d0f9061410b565b60405180910390fd5b60008411612d5b576040517f08c379a0000000000000000000000000000000000000000000000000000000008152600401612d529061414b565b60405180910390fd5b6007543414612d9f576040517f08c379a0000000000000000000000000000000000000000000000000000000008152600401612d96906140ab565b60405180910390fd5b600660009054906101000a900473ffffffffffffffffffffffffffffffffffffffff1673ffffffffffffffffffffffffffffffffffffffff166108fc6007549081150290604051600060405180830381858888f19350505050158015612e09573d6000803e3d6000fd5b5060018214156130345760008690506000600360009054906101000a900473ffffffffffffffffffffffffffffffffffffffff1673ffffffffffffffffffffffffffffffffffffffff1663e6a439058373ffffffffffffffffffffffffffffffffffffffff16630dfe16816040518163ffffffff1660e01b815260040160206040518083038186803b158015612e9e57600080fd5b505afa158015612eb2573d6000803e3d6000fd5b505050506040513d601f19601f82011682018060405250810190612ed6919061396f565b8473ffffffffffffffffffffffffffffffffffffffff1663d21220a76040518163ffffffff1660e01b815260040160206040518083038186803b158015612f1c57600080fd5b505afa158015612f30573d6000803e3d6000fd5b505050506040513d601f19601f82011682018060405250810190612f54919061396f565b6040518363ffffffff1660e01b8152600401612f71929190613f56565b60206040518083038186803b158015612f8957600080fd5b505afa158015612f9d573d6000803e3d6000fd5b505050506040513d601f19601f82011682018060405250810190612fc1919061396f565b90508773ffffffffffffffffffffffffffffffffffffffff168173ffffffffffffffffffffffffffffffffffffffff1614613031576040517f08c379a00000000000000000000000000000000000000000000000000000000081526004016130289061416b565b60405180910390fd5b50505b6130c384600b60008973ffffffffffffffffffffffffffffffffffffffff1673ffffffffffffffffffffffffffffffffffffffff16815260200190815260200160002060008873ffffffffffffffffffffffffffffffffffffffff1673ffffffffffffffffffffffffffffffffffffffff1681526020019081526020016000205461375890919063ffffffff16565b600b60008873ffffffffffffffffffffffffffffffffffffffff1673ffffffffffffffffffffffffffffffffffffffff16815260200190815260200160002060008773ffffffffffffffffffffffffffffffffffffffff1673ffffffffffffffffffffffffffffffffffffffff16815260200190815260200160002081905550600460008154613152906144f8565b919050819055905085600a600083815260200190815260200160002060000160006101000a81548173ffffffffffffffffffffffffffffffffffffffff021916908373ffffffffffffffffffffffffffffffffffffffff16021790555084600a600083815260200190815260200160002060010160006101000a81548173ffffffffffffffffffffffffffffffffffffffff021916908373ffffffffffffffffffffffffffffffffffffffff16021790555083600a60008381526020019081526020016000206002018190555082600a60008381526020019081526020016000206003018190555042600a60008381526020019081526020016000206004018190555081600a6000838152602001908152602001600020600501819055506000600a600083815260200190815260200160002060060160006101000a81548160ff0219169083151502179055506005819080600181540180825580915050600190039060005260206000200160009091909190915055600860008673ffffffffffffffffffffffffffffffffffffffff1673ffffffffffffffffffffffffffffffffffffffff168152602001908152602001600020819080600181540180825580915050600190039060005260206000200160009091909190915055600960008773ffffffffffffffffffffffffffffffffffffffff1673ffffffffffffffffffffffffffffffffffffffff1681526020019081526020016000208190806001815401808255809150506001900390600052602060002001600090919091909150558573ffffffffffffffffffffffffffffffffffffffff166323b872dd33600260009054906101000a900473ffffffffffffffffffffffffffffffffffffffff16876040518463ffffffff1660e01b81526004016133f393929190613f7f565b602060405180830381600087803b15801561340d57600080fd5b505af1158015613421573d6000803e3d6000fd5b505050506040513d601f19601f820116820180604052508101906134459190613b57565b613484576040517f08c379a000000000000000000000000000000000000000000000000000000000815260040161347b9061412b565b60405180910390fd5b7ff0d37b27c1e400f06e68594124c3d95a2d82d55d5ef0936336eb946043a9078b8187878787600a60008881526020019081526020016000206004015488600a60008a815260200190815260200160002060060160009054906101000a900460ff166040516134fa9897969594939291906142a6565b60405180910390a16001808190555095945050505050565b6005818154811061352257600080fd5b906000526020600020016000915090505481565b61353e613750565b73ffffffffffffffffffffffffffffffffffffffff1661355c612131565b73ffffffffffffffffffffffffffffffffffffffff16146135b2576040517f08c379a00000000000000000000000000000000000000000000000000000000081526004016135a9906141ab565b60405180910390fd5b80600660006101000a81548173ffffffffffffffffffffffffffffffffffffffff021916908373ffffffffffffffffffffffffffffffffffffffff16021790555050565b6000600860008373ffffffffffffffffffffffffffffffffffffffff1673ffffffffffffffffffffffffffffffffffffffff168152602001908152602001600020805490509050919050565b61364a613750565b73ffffffffffffffffffffffffffffffffffffffff16613668612131565b73ffffffffffffffffffffffffffffffffffffffff16146136be576040517f08c379a00000000000000000000000000000000000000000000000000000000081526004016136b5906141ab565b60405180910390fd5b600073ffffffffffffffffffffffffffffffffffffffff168173ffffffffffffffffffffffffffffffffffffffff16141561372e576040517f08c379a0000000000000000000000000000000000000000000000000000000008152600401613725906140cb565b60405180910390fd5b6137378161376e565b50565b600081836137489190614415565b905092915050565b600033905090565b6000818361376691906143bf565b905092915050565b60008060009054906101000a900473ffffffffffffffffffffffffffffffffffffffff169050816000806101000a81548173ffffffffffffffffffffffffffffffffffffffff021916908373ffffffffffffffffffffffffffffffffffffffff1602179055508173ffffffffffffffffffffffffffffffffffffffff168173ffffffffffffffffffffffffffffffffffffffff167f8be0079c531659141344cd1fd0a4f28419497f9722a3daafe3b4186f6b6457e060405160405180910390a35050565b600061384561384084614349565b614324565b9050808382526020820190508285602086028201111561386457600080fd5b60005b85811015613894578161387a888261391c565b845260208401935060208301925050600181019050613867565b5050509392505050565b6000813590506138ad816149e2565b92915050565b6000815190506138c2816149e2565b92915050565b6000813590506138d7816149f9565b92915050565b600082601f8301126138ee57600080fd5b81356138fe848260208601613832565b91505092915050565b60008151905061391681614a10565b92915050565b60008135905061392b81614a27565b92915050565b60008151905061394081614a27565b92915050565b60006020828403121561395857600080fd5b60006139668482850161389e565b91505092915050565b60006020828403121561398157600080fd5b600061398f848285016138b3565b91505092915050565b6000602082840312156139aa57600080fd5b60006139b8848285016138c8565b91505092915050565b600080604083850312156139d457600080fd5b60006139e28582860161389e565b92505060206139f38582860161389e565b9150509250929050565b600080600080600060a08688031215613a1557600080fd5b6000613a238882890161389e565b9550506020613a348882890161389e565b9450506040613a458882890161391c565b935050606086013567ffffffffffffffff811115613a6257600080fd5b613a6e888289016138dd565b925050608086013567ffffffffffffffff811115613a8b57600080fd5b613a97888289016138dd565b9150509295509295909350565b600080600080600060a08688031215613abc57600080fd5b6000613aca8882890161389e565b9550506020613adb8882890161389e565b9450506040613aec8882890161391c565b9350506060613afd8882890161391c565b9250506080613b0e8882890161391c565b9150509295509295909350565b60008060408385031215613b2e57600080fd5b6000613b3c8582860161389e565b9250506020613b4d8582860161391c565b9150509250929050565b600060208284031215613b6957600080fd5b6000613b7784828501613907565b91505092915050565b600060208284031215613b9257600080fd5b6000613ba08482850161391c565b91505092915050565b600060208284031215613bbb57600080fd5b6000613bc984828501613931565b91505092915050565b60008060408385031215613be557600080fd5b6000613bf38582860161391c565b9250506020613c048582860161389e565b9150509250929050565b60008060408385031215613c2157600080fd5b6000613c2f8582860161391c565b9250506020613c408582860161391c565b9150509250929050565b6000613c568383613f1d565b60208301905092915050565b613c6b81614449565b82525050565b6000613c7c82614385565b613c86818561439d565b9350613c9183614375565b8060005b83811015613cc2578151613ca98882613c4a565b9750613cb483614390565b925050600181019050613c95565b5085935050505092915050565b613cd88161446d565b82525050565b613ce7816144a3565b82525050565b6000613cfa6033836143ae565b9150613d05826145b0565b604082019050919050565b6000613d1d602a836143ae565b9150613d28826145ff565b604082019050919050565b6000613d406026836143ae565b9150613d4b8261464e565b604082019050919050565b6000613d63602d836143ae565b9150613d6e8261469d565b604082019050919050565b6000613d866011836143ae565b9150613d91826146ec565b602082019050919050565b6000613da96020836143ae565b9150613db482614715565b602082019050919050565b6000613dcc6038836143ae565b9150613dd78261473e565b604082019050919050565b6000613def6009836143ae565b9150613dfa8261478d565b602082019050919050565b6000613e126026836143ae565b9150613e1d826147b6565b604082019050919050565b6000613e356020836143ae565b9150613e4082614805565b602082019050919050565b6000613e586034836143ae565b9150613e638261482e565b604082019050919050565b6000613e7b603a836143ae565b9150613e868261487d565b604082019050919050565b6000613e9e6028836143ae565b9150613ea9826148cc565b604082019050919050565b6000613ec16032836143ae565b9150613ecc8261491b565b604082019050919050565b6000613ee4603f836143ae565b9150613eef8261496a565b604082019050919050565b6000613f07601f836143ae565b9150613f12826149b9565b602082019050919050565b613f2681614499565b82525050565b613f3581614499565b82525050565b6000602082019050613f506000830184613c62565b92915050565b6000604082019050613f6b6000830185613c62565b613f786020830184613c62565b9392505050565b6000606082019050613f946000830186613c62565b613fa16020830185613c62565b613fae6040830184613f2c565b949350505050565b600060e082019050613fcb600083018a613c62565b613fd86020830189613c62565b613fe56040830188613f2c565b613ff26060830187613f2c565b613fff6080830186613f2c565b61400c60a0830185613f2c565b61401960c0830184613ccf565b98975050505050505050565b600060408201905061403a6000830185613c62565b6140476020830184613f2c565b9392505050565b600060208201905081810360008301526140688184613c71565b905092915050565b60006020820190506140856000830184613cde565b92915050565b600060208201905081810360008301526140a481613ced565b9050919050565b600060208201905081810360008301526140c481613d10565b9050919050565b600060208201905081810360008301526140e481613d33565b9050919050565b6000602082019050818103600083015261410481613d56565b9050919050565b6000602082019050818103600083015261412481613d79565b9050919050565b6000602082019050818103600083015261414481613d9c565b9050919050565b6000602082019050818103600083015261416481613dbf565b9050919050565b6000602082019050818103600083015261418481613de2565b9050919050565b600060208201905081810360008301526141a481613e05565b9050919050565b600060208201905081810360008301526141c481613e28565b9050919050565b600060208201905081810360008301526141e481613e4b565b9050919050565b6000602082019050818103600083015261420481613e6e565b9050919050565b6000602082019050818103600083015261422481613e91565b9050919050565b6000602082019050818103600083015261424481613eb4565b9050919050565b6000602082019050818103600083015261426481613ed7565b9050919050565b6000602082019050818103600083015261428481613efa565b9050919050565b60006020820190506142a06000830184613f2c565b92915050565b6000610100820190506142bc600083018b613f2c565b6142c9602083018a613c62565b6142d66040830189613c62565b6142e36060830188613f2c565b6142f06080830187613f2c565b6142fd60a0830186613f2c565b61430a60c0830185613f2c565b61431760e0830184613ccf565b9998505050505050505050565b600061432e61433f565b905061433a82826144c7565b919050565b6000604051905090565b600067ffffffffffffffff82111561436457614363614570565b5b602082029050602081019050919050565b6000819050602082019050919050565b600081519050919050565b6000602082019050919050565b600082825260208201905092915050565b600082825260208201905092915050565b60006143ca82614499565b91506143d583614499565b9250827fffffffffffffffffffffffffffffffffffffffffffffffffffffffffffffffff0382111561440a57614409614541565b5b828201905092915050565b600061442082614499565b915061442b83614499565b92508282101561443e5761443d614541565b5b828203905092915050565b600061445482614479565b9050919050565b600061446682614479565b9050919050565b60008115159050919050565b600073ffffffffffffffffffffffffffffffffffffffff82169050919050565b6000819050919050565b60006144ae826144b5565b9050919050565b60006144c082614479565b9050919050565b6144d08261459f565b810181811067ffffffffffffffff821117156144ef576144ee614570565b5b80604052505050565b600061450382614499565b91507fffffffffffffffffffffffffffffffffffffffffffffffffffffffffffffffff82141561453657614535614541565b5b600182019050919050565b7f4e487b7100000000000000000000000000000000000000000000000000000000600052601160045260246000fd5b7f4e487b7100000000000000000000000000000000000000000000000000000000600052604160045260246000fd5b6000601f19601f8301169050919050565b7f4172626943727970744c6f636b65723a20746f6b656e73206861766520616c7260008201527f65616479206265656e2077697468647261776e00000000000000000000000000602082015250565b7f4172626943727970744c6f636b65723a20696e73756666696369656e7420657460008201527f6820666f72206665657300000000000000000000000000000000000000000000602082015250565b7f4f776e61626c653a206e6577206f776e657220697320746865207a65726f206160008201527f6464726573730000000000000000000000000000000000000000000000000000602082015250565b7f4172626943727970744c6f636b65723a206e657720756e6c6f636b2074696d6560008201527f20697320746f6f20736d616c6c00000000000000000000000000000000000000602082015250565b7f696e76616c6964206c6f636b2074797065000000000000000000000000000000600082015250565b7f4172626943727970744c6f636b65723a207472616e73666572206661696c6564600082015250565b7f4172626943727970744c6f636b65723a20616d6f756e74206f6620746f6b656e60008201527f732072657175657374656420746f206c6f636b20697320300000000000000000602082015250565b7f4e4f5420554e4956320000000000000000000000000000000000000000000000600082015250565b7f4172626943727970744c6f636b65723a20416d6f756e74206973206c6573732060008201527f7468616e20300000000000000000000000000000000000000000000000000000602082015250565b7f4f776e61626c653a2063616c6c6572206973206e6f7420746865206f776e6572600082015250565b7f4172626943727970744c6f636b65723a20416d6f756e747320616e6420756e6c60008201527f6f636b20636f756e7420646f6e74206d61746368000000000000000000000000602082015250565b7f4172626943727970744c6f636b65723a20756e6c6f636b2074696d652069732060008201527f6265666f72652063757272656e7420756e6c6f636b2074696d65000000000000602082015250565b7f4172626943727970744c6f636b65723a20796f7520646f6e2774206f776e207460008201527f686973206c6f636b000000000000000000000000000000000000000000000000602082015250565b7f4172626943727970744c6f636b65723a20746f6b656e206861766520616c726560008201527f616479206265656e2077697468647261776e0000000000000000000000000000602082015250565b7f4172626943727970744c6f636b65723a2043616e206f6e6c792062652077696460008201527f74687261776e206f6e2073706563696669656420756e6c6f636b2074696d6500602082015250565b7f5265656e7472616e637947756172643a207265656e7472616e742063616c6c00600082015250565b6149eb81614449565b81146149f657600080fd5b50565b614a028161445b565b8114614a0d57600080fd5b50565b614a198161446d565b8114614a2457600080fd5b50565b614a3081614499565b8114614a3b57600080fd5b5056fea2646970667358221220059e046bed816cf34c880df928ed14d1c973fe3a9b9899714eddc4c602275e5b64736f6c63430008040033",
  "immutableReferences": {},
  "source": "// SPDX-License-Identifier: MIT\npragma solidity ^0.8.4;\n\nimport \"@openzeppelin/contracts/token/ERC20/IERC20.sol\";\nimport \"@openzeppelin/contracts/access/Ownable.sol\";\nimport \"@openzeppelin/contracts/utils/math/SafeMath.sol\";\nimport \"@openzeppelin/contracts/token/ERC20/ERC20.sol\";\nimport \"@openzeppelin/contracts/utils/Context.sol\";\nimport \"@openzeppelin/contracts/security/ReentrancyGuard.sol\";\nimport \"@openzeppelin/contracts/token/ERC20/utils/SafeERC20.sol\";\nimport \"@openzeppelin/contracts/access/AccessControl.sol\";\n\ninterface IUniswapV2Pair {\n    function factory() external view returns (address);\n\n    function token0() external view returns (address);\n\n    function token1() external view returns (address);\n}\n\ninterface IUniFactory {\n    function getPair(address tokenA, address tokenB)\n        external\n        view\n        returns (address);\n}\n\ncontract ArbiCryptLocker is Ownable, ReentrancyGuard {\n    using SafeMath for uint256;\n    using SafeERC20 for IERC20;\n\n    // Arbicrypt locker address\n    address public _arbicryptLockerAddress = address(this);\n\n    IUniFactory public uniswapFactory;\n\n    // TokenLocker objct contains all locked token enteries and information\n    struct TokenLockerObject {\n        address tokenAddress;\n        address withdrawalAddress;\n        uint256 tokenAmount;\n        uint256 unlockTime;\n        uint256 lockDate;\n        uint256 lockType; // 1 = UniV2 token lock, 2 = Token lock\n        bool withdrawn;\n    }\n\n    // Key vars and data containers\n    uint256 public depositId;\n    uint256[] public allDepositIds;\n    address payable devaddr;\n    uint256 public ethFee;\n\n    mapping(address => uint256[]) public depositsByWithdrawalAddress;\n    mapping(address => uint256[]) public depositsByTokenAddress;\n    mapping(uint256 => TokenLockerObject) public lockedToken;\n    mapping(address => mapping(address => uint256)) public walletTokenBalance;\n\n    /**\n     *Event for tokens being withdrawn to its owner after time lock complete and withdrawal requested\n     */\n    event LogWithdrawal(address SentToAddress, uint256 AmountTransferred);\n\n    /**\n     *Event for tokens being locked\n     */\n    event LogLock(\n        uint256 _id,\n        address _tokenAddress,\n        address _withdrawalAddress,\n        uint256 _amount,\n        uint256 _unlockTime,\n        uint256 _lockDate,\n        uint256 _lockType,\n        bool _withdrawn\n    );\n\n    constructor(IUniFactory _uniswapFactory) {\n        uniswapFactory = _uniswapFactory;\n        devaddr = payable(owner());\n        ethFee = 75_000_000_000_000_000; // initially set to 0.075 eth to prevent spam\n    }\n\n    /**\n     * set lock fees\n     */\n    function setFees(uint256 _ethFeeInWei) public onlyOwner {\n        ethFee = _ethFeeInWei;\n    }\n\n    /**\n     *lock tokens\n     */\n    function lockTokens(\n        address _tokenAddress,\n        address _withdrawalAddress,\n        uint256 _amount,\n        uint256 _unlockTime,\n        uint256 _lockType\n    ) external payable nonReentrant returns (uint256 _id) {\n        require(_lockType > 0, \"invalid lock type\");\n        require(\n            _amount > 0,\n            \"ArbiCryptLocker: amount of tokens requested to lock is 0\"\n        );\n        require(\n            msg.value == ethFee,\n            \"ArbiCryptLocker: insufficient eth for fees\"\n        );\n        devaddr.transfer(ethFee);\n\n        if (_lockType == 1) {\n            // ensure this pair is a univ2 pair by querying the factory\n            IUniswapV2Pair lpair = IUniswapV2Pair(address(_tokenAddress));\n            address factoryPairAddress = uniswapFactory.getPair(\n                lpair.token0(),\n                lpair.token1()\n            );\n            require(factoryPairAddress == address(_tokenAddress), \"NOT UNIV2\");\n        }\n\n        //update balance in address\n        walletTokenBalance[_tokenAddress][\n            _withdrawalAddress\n        ] = walletTokenBalance[_tokenAddress][_withdrawalAddress].add(_amount);\n\n        _id = ++depositId;\n        lockedToken[_id].tokenAddress = _tokenAddress;\n        lockedToken[_id].withdrawalAddress = _withdrawalAddress;\n        lockedToken[_id].tokenAmount = _amount;\n        lockedToken[_id].unlockTime = _unlockTime;\n        lockedToken[_id].lockDate = block.timestamp;\n        lockedToken[_id].lockType = _lockType;\n        lockedToken[_id].withdrawn = false;\n\n        allDepositIds.push(_id);\n        depositsByWithdrawalAddress[_withdrawalAddress].push(_id);\n        depositsByTokenAddress[_tokenAddress].push(_id);\n\n        // transfer tokens into contract\n        require(\n            IERC20(_tokenAddress).transferFrom(\n                msg.sender,\n                _arbicryptLockerAddress,\n                _amount\n            ),\n            \"ArbiCryptLocker: transfer failed\"\n        );\n\n        emit LogLock(\n            _id,\n            _tokenAddress,\n            _withdrawalAddress,\n            _amount,\n            _unlockTime,\n            lockedToken[_id].lockDate,\n            _lockType,\n            lockedToken[_id].withdrawn\n        );\n    }\n\n    /**\n     *Create multiple locks\n     */\n    function createMultipleLocks(\n        address _tokenAddress,\n        address _withdrawalAddress,\n        uint256 _lockType,\n        uint256[] memory _amounts,\n        uint256[] memory _unlockTimes\n    ) external payable nonReentrant returns (uint256 _id) {\n        require(_amounts.length > 0, \"ArbiCryptLocker: Amount is less than 0\");\n        require(\n            _amounts.length == _unlockTimes.length,\n            \"ArbiCryptLocker: Amounts and unlock count dont match\"\n        );\n\n        require(\n            msg.value == ethFee,\n            \"ArbiCryptLocker: insufficient eth for fees\"\n        );\n        devaddr.transfer(ethFee);\n\n        if (_lockType == 1) {\n            // ensure this pair is a univ2 pair by querying the factory\n            IUniswapV2Pair lpair = IUniswapV2Pair(address(_tokenAddress));\n            address factoryPairAddress = uniswapFactory.getPair(\n                lpair.token0(),\n                lpair.token1()\n            );\n            require(factoryPairAddress == address(_tokenAddress), \"NOT UNIV2\");\n        }\n\n        uint256 i;\n        for (i = 0; i < _amounts.length; i++) {\n            require(_amounts[i] > 0);\n\n            //update balance in address\n            walletTokenBalance[_tokenAddress][\n                _withdrawalAddress\n            ] = walletTokenBalance[_tokenAddress][_withdrawalAddress].add(\n                _amounts[i]\n            );\n\n            _id = ++depositId;\n            lockedToken[_id].tokenAddress = _tokenAddress;\n            lockedToken[_id].withdrawalAddress = _withdrawalAddress;\n            lockedToken[_id].tokenAmount = _amounts[i];\n            lockedToken[_id].unlockTime = _unlockTimes[i];\n            lockedToken[_id].lockDate = block.timestamp;\n            lockedToken[_id].lockType = _lockType;\n            lockedToken[_id].withdrawn = false;\n\n            allDepositIds.push(_id);\n            depositsByWithdrawalAddress[_withdrawalAddress].push(_id);\n            depositsByTokenAddress[_tokenAddress].push(_id);\n\n            //transfer tokens into contract\n            require(\n                IERC20(_tokenAddress).transferFrom(\n                    msg.sender,\n                    _tokenAddress,\n                    _amounts[i]\n                ),\n                \"ArbiCryptLocker: transfer failed\"\n            );\n        }\n    }\n\n    /**\n     *Extend lock Duration\n     */\n    function extendLockDuration(uint256 _id, uint256 _unlockTime)\n        external\n        nonReentrant\n    {\n        require(\n            _unlockTime < 10000000000,\n            \"ArbiCryptLocker: new unlock time is too small\"\n        );\n        require(\n            _unlockTime > lockedToken[_id].unlockTime,\n            \"ArbiCryptLocker: unlock time is before current unlock time\"\n        );\n        require(\n            !lockedToken[_id].withdrawn,\n            \"ArbiCryptLocker: tokens have already been withdrawn\"\n        );\n        require(\n            msg.sender == lockedToken[_id].withdrawalAddress,\n            \"ArbiCryptLocker: you don't own this lock\"\n        );\n\n        //set new unlock time\n        lockedToken[_id].unlockTime = _unlockTime;\n    }\n\n    /**\n     *transfer locked tokens\n     */\n    function transferLocks(uint256 _id, address _receiverAddress) external {\n        require(\n            !lockedToken[_id].withdrawn,\n            \"ArbiCryptLocker: token have already been withdrawn\"\n        );\n        require(\n            msg.sender == lockedToken[_id].withdrawalAddress,\n            \"ArbiCryptLocker: you don't own this lock\"\n        );\n\n        //decrease sender's token balance\n        walletTokenBalance[lockedToken[_id].tokenAddress][\n            msg.sender\n        ] = walletTokenBalance[lockedToken[_id].tokenAddress][msg.sender].sub(\n            lockedToken[_id].tokenAmount\n        );\n\n        //increase receiver's token balance\n        walletTokenBalance[lockedToken[_id].tokenAddress][\n            _receiverAddress\n        ] = walletTokenBalance[lockedToken[_id].tokenAddress][_receiverAddress]\n            .add(lockedToken[_id].tokenAmount);\n\n        //remove this id from sender address\n        uint256 j;\n        uint256 arrLength = depositsByWithdrawalAddress[\n            lockedToken[_id].withdrawalAddress\n        ].length;\n        for (j = 0; j < arrLength; j++) {\n            if (\n                depositsByWithdrawalAddress[lockedToken[_id].withdrawalAddress][\n                    j\n                ] == _id\n            ) {\n                depositsByWithdrawalAddress[lockedToken[_id].withdrawalAddress][\n                    j\n                ] = depositsByWithdrawalAddress[\n                    lockedToken[_id].withdrawalAddress\n                ][arrLength - 1];\n                depositsByWithdrawalAddress[lockedToken[_id].withdrawalAddress]\n                    .pop();\n                break;\n            }\n        }\n\n        //Assign this id to receiver address\n        lockedToken[_id].withdrawalAddress = _receiverAddress;\n        depositsByWithdrawalAddress[_receiverAddress].push(_id);\n    }\n\n    /**\n     *withdraw tokens\n     */\n    function withdrawTokens(uint256 _id) external nonReentrant {\n        require(\n            lockedToken[_id].unlockTime < block.timestamp,\n            \"ArbiCryptLocker: Can only be widthrawn on specified unlock time\"\n        );\n        require(\n            msg.sender == lockedToken[_id].withdrawalAddress,\n            \"ArbiCryptLocker: you don't own this lock\"\n        );\n        require(\n            !lockedToken[_id].withdrawn,\n            \"ArbiCryptLocker: token have already been withdrawn\"\n        );\n\n        lockedToken[_id].withdrawn = true;\n\n        //update balance in address\n        walletTokenBalance[lockedToken[_id].tokenAddress][\n            msg.sender\n        ] = walletTokenBalance[lockedToken[_id].tokenAddress][msg.sender].sub(\n            lockedToken[_id].tokenAmount\n        );\n\n        //remove this id from this address\n        uint256 j;\n        uint256 arrLength = depositsByWithdrawalAddress[\n            lockedToken[_id].withdrawalAddress\n        ].length;\n        for (j = 0; j < arrLength; j++) {\n            if (\n                depositsByWithdrawalAddress[lockedToken[_id].withdrawalAddress][\n                    j\n                ] == _id\n            ) {\n                depositsByWithdrawalAddress[lockedToken[_id].withdrawalAddress][\n                    j\n                ] = depositsByWithdrawalAddress[\n                    lockedToken[_id].withdrawalAddress\n                ][arrLength - 1];\n                depositsByWithdrawalAddress[lockedToken[_id].withdrawalAddress]\n                    .pop();\n                break;\n            }\n        }\n\n        // transfer tokens to wallet address\n        require(\n            IERC20(lockedToken[_id].tokenAddress).transfer(\n                msg.sender,\n                lockedToken[_id].tokenAmount\n            )\n        );\n        emit LogWithdrawal(msg.sender, lockedToken[_id].tokenAmount);\n    }\n\n    /**\n     * set dev wallet for lock fees\n     */\n    function setDev(address payable _devaddr) public onlyOwner {\n        devaddr = _devaddr;\n    }\n\n    /*get total token balance in contract*/\n    function getTotalTokenBalance(address _tokenAddress)\n        external\n        view\n        returns (uint256)\n    {\n        return IERC20(_tokenAddress).balanceOf(_arbicryptLockerAddress);\n    }\n\n    /*get total token balance by address*/\n    function getTokenBalanceByAddress(\n        address _tokenAddress,\n        address _walletAddress\n    ) external view returns (uint256) {\n        return walletTokenBalance[_tokenAddress][_walletAddress];\n    }\n\n    /*get allDepositIds*/\n    function getAllDepositIds() external view returns (uint256[] memory) {\n        return allDepositIds;\n    }\n\n    /*get getDepositDetails by Id*/\n    function getDepositDetailsById(uint256 _id)\n        external\n        view\n        returns (\n            address _tokenAddress,\n            address _withdrawalAddress,\n            uint256 _tokenAmount,\n            uint256 _unlockTime,\n            uint256 _lockDate,\n            uint256 _lockType,\n            bool _withdrawn\n        )\n    {\n        return (\n            lockedToken[_id].tokenAddress,\n            lockedToken[_id].withdrawalAddress,\n            lockedToken[_id].tokenAmount,\n            lockedToken[_id].unlockTime,\n            lockedToken[_id].lockDate,\n            lockedToken[_id].lockType,\n            lockedToken[_id].withdrawn\n        );\n    }\n\n    /* returns details of first active lock for the given token address*/\n    function getDepositDetailsByAddress(address _tokenAddress)\n        external\n        view\n        returns (\n            address _tokenAddress_,\n            address _withdrawalAddress,\n            uint256 _tokenAmount,\n            uint256 _unlockTime,\n            uint256 _lockDate,\n            uint256 _lockType,\n            bool _withdrawn\n        )\n    {\n        uint256 oldestId = depositsByTokenAddress[_tokenAddress][0];\n\n        return (\n            lockedToken[oldestId].tokenAddress,\n            lockedToken[oldestId].withdrawalAddress,\n            lockedToken[oldestId].tokenAmount,\n            lockedToken[oldestId].unlockTime,\n            lockedToken[oldestId].lockDate,\n            lockedToken[oldestId].lockType,\n            lockedToken[oldestId].withdrawn\n        );\n    }\n\n    /* get total number of locks */\n    function getTotalLockedTokens() external view returns (uint256) {\n        return allDepositIds.length;\n    }\n\n    /* get total number of locks by withdrawal address*/\n    function getTotalLockedTokensByWithdrawalAddress(address _withdrawalAddress)\n        external\n        view\n        returns (uint256)\n    {\n        return depositsByWithdrawalAddress[_withdrawalAddress].length;\n    }\n\n    /* get total number of locks by token address*/\n    function getTotalLockedTokensByTokenAddress(address _tokenAddress)\n        external\n        view\n        returns (uint256)\n    {\n        return depositsByTokenAddress[_tokenAddress].length;\n    }\n\n    /*get DepositsByWithdrawalAddress This info is stored in the contract data on the blockchain and can be pulled by pulling the deposit ids from the stored data by deposit ID*/\n    function getDepositsByWithdrawalAddress(address _withdrawalAddress)\n        external\n        view\n        returns (uint256[] memory)\n    {\n        return depositsByWithdrawalAddress[_withdrawalAddress];\n    }\n\n    /*get deposit by token address */\n    function getDepositsByTokenAddress(address _tokenAddress)\n        external\n        view\n        returns (uint256[] memory)\n    {\n        return depositsByTokenAddress[_tokenAddress];\n    }\n    \n    function getTimeNow() external view returns (uint256) {\n        return block.timestamp;\n    }\n}",
  "sourcePath": "/home/jeffrey/Documents/_projects/react-projects/Arbicrypt-fixed/contracts/ArbiCryptLocker.sol",
  "compiler": {
    "name": "solc",
    "version": "0.8.4+commit.c7e474f2.Emscripten.clang"
  },
  "schemaVersion": "3.4.7",
  "updatedAt": "2022-05-09T01:41:51.495Z",
  "networkType": "ethereum",
  "devdoc": {
    "kind": "dev",
    "methods": {
      "owner()": {
        "details": "Returns the address of the current owner."
      },
      "renounceOwnership()": {
        "details": "Leaves the contract without owner. It will not be possible to call `onlyOwner` functions anymore. Can only be called by the current owner. NOTE: Renouncing ownership will leave the contract without an owner, thereby removing any functionality that is only available to the owner."
      },
      "transferOwnership(address)": {
        "details": "Transfers ownership of the contract to a new account (`newOwner`). Can only be called by the current owner."
      }
    },
    "version": 1
  },
  "userdoc": {
    "events": {
      "LogLock(uint256,address,address,uint256,uint256,uint256,uint256,bool)": {
        "notice": "Event for tokens being locked"
      },
      "LogWithdrawal(address,uint256)": {
        "notice": "Event for tokens being withdrawn to its owner after time lock complete and withdrawal requested"
      }
    },
    "kind": "user",
    "methods": {
      "createMultipleLocks(address,address,uint256,uint256[],uint256[])": {
        "notice": "Create multiple locks"
      },
      "extendLockDuration(uint256,uint256)": {
        "notice": "Extend lock Duration"
      },
      "lockTokens(address,address,uint256,uint256,uint256)": {
        "notice": "lock tokens"
      },
      "setDev(address)": {
        "notice": "set dev wallet for lock fees"
      },
      "setFees(uint256)": {
        "notice": "set lock fees"
      },
      "transferLocks(uint256,address)": {
        "notice": "transfer locked tokens"
      },
      "withdrawTokens(uint256)": {
        "notice": "withdraw tokens"
      }
    },
    "version": 1
  }
}