{
  "contractName": "ERC20Factory",
  "abi": [
    {
      "inputs": [],
      "stateMutability": "nonpayable",
      "type": "constructor"
    },
    {
      "inputs": [],
      "name": "owner",
      "outputs": [
        {
          "internalType": "address",
          "name": "",
          "type": "address"
        }
      ],
      "stateMutability": "view",
      "type": "function"
    },
    {
      "inputs": [
        {
          "internalType": "uint256",
          "name": "",
          "type": "uint256"
        }
      ],
      "name": "tokens",
      "outputs": [
        {
          "internalType": "contract IERC20",
          "name": "",
          "type": "address"
        }
      ],
      "stateMutability": "view",
      "type": "function"
    },
    {
      "inputs": [
        {
          "internalType": "string",
          "name": "name",
          "type": "string"
        },
        {
          "internalType": "string",
          "name": "symbol",
          "type": "string"
        }
      ],
      "name": "createToken",
      "outputs": [],
      "stateMutability": "nonpayable",
      "type": "function"
    },
    {
      "inputs": [],
      "name": "getTokens",
      "outputs": [
        {
          "internalType": "contract IERC20[]",
          "name": "_tokens",
          "type": "address[]"
        }
      ],
      "stateMutability": "view",
      "type": "function"
    }
  ],
  "bytecode": "0x608060405234801561001057600080fd5b5033600160006101000a81548173ffffffffffffffffffffffffffffffffffffffff021916908373ffffffffffffffffffffffffffffffffffffffff16021790555061418d806100616000396000f3fe60806040523480156200001157600080fd5b5060043610620000525760003560e01c80632f2f2d5614620000575780634f64b2be14620000775780638da5cb5b14620000ad578063aa6ca80814620000cf575b600080fd5b6200007560048036038101906200006f9190620004fa565b620000f1565b005b6200009560048036038101906200008f919062000576565b6200034f565b604051620000a4919062000749565b60405180910390f35b620000b76200038f565b604051620000c69190620006ae565b60405180910390f35b620000d9620003b5565b604051620000e89190620006f8565b60405180910390f35b600084848484604051620001059062000445565b62000114949392919062000766565b604051809103906000f08015801562000131573d6000803e3d6000fd5b5090508073ffffffffffffffffffffffffffffffffffffffff16632f2ff15d8273ffffffffffffffffffffffffffffffffffffffff1663d53913936040518163ffffffff1660e01b815260040160206040518083038186803b1580156200019757600080fd5b505afa158015620001ac573d6000803e3d6000fd5b505050506040513d601f19601f82011682018060405250810190620001d29190620004ce565b600160009054906101000a900473ffffffffffffffffffffffffffffffffffffffff166040518363ffffffff1660e01b8152600401620002149291906200071c565b600060405180830381600087803b1580156200022f57600080fd5b505af115801562000244573d6000803e3d6000fd5b505050508073ffffffffffffffffffffffffffffffffffffffff166340c10f19600160009054906101000a900473ffffffffffffffffffffffffffffffffffffffff1669021e19e0c9bab24000006040518363ffffffff1660e01b8152600401620002b1929190620006cb565b600060405180830381600087803b158015620002cc57600080fd5b505af1158015620002e1573d6000803e3d6000fd5b505050506000819080600181540180825580915050600190039060005260206000200160009091909190916101000a81548173ffffffffffffffffffffffffffffffffffffffff021916908373ffffffffffffffffffffffffffffffffffffffff1602179055505050505050565b600081815481106200036057600080fd5b906000526020600020016000915054906101000a900473ffffffffffffffffffffffffffffffffffffffff1681565b600160009054906101000a900473ffffffffffffffffffffffffffffffffffffffff1681565b606060008054806020026020016040519081016040528092919081815260200182805480156200043b57602002820191906000526020600020905b8160009054906101000a900473ffffffffffffffffffffffffffffffffffffffff1673ffffffffffffffffffffffffffffffffffffffff1681526020019060010190808311620003f0575b5050505050905090565b61389080620008c883390190565b600081519050620004648162000893565b92915050565b60008083601f8401126200047d57600080fd5b8235905067ffffffffffffffff8111156200049757600080fd5b602083019150836001820283011115620004b057600080fd5b9250929050565b600081359050620004c881620008ad565b92915050565b600060208284031215620004e157600080fd5b6000620004f18482850162000453565b91505092915050565b600080600080604085870312156200051157600080fd5b600085013567ffffffffffffffff8111156200052c57600080fd5b6200053a878288016200046a565b9450945050602085013567ffffffffffffffff8111156200055a57600080fd5b62000568878288016200046a565b925092505092959194509250565b6000602082840312156200058957600080fd5b60006200059984828501620004b7565b91505092915050565b6000620005b0838362000648565b60208301905092915050565b620005c781620007ef565b82525050565b6000620005da82620007b5565b620005e68185620007cd565b9350620005f383620007a5565b8060005b838110156200062a5781516200060e8882620005a2565b97506200061b83620007c0565b925050600181019050620005f7565b5085935050505092915050565b620006428162000803565b82525050565b620006538162000837565b82525050565b620006648162000837565b82525050565b62000675816200085f565b82525050565b6000620006898385620007de565b93506200069883858462000873565b620006a38362000882565b840190509392505050565b6000602082019050620006c56000830184620005bc565b92915050565b6000604082019050620006e26000830185620005bc565b620006f160208301846200066a565b9392505050565b60006020820190508181036000830152620007148184620005cd565b905092915050565b600060408201905062000733600083018562000637565b620007426020830184620005bc565b9392505050565b600060208201905062000760600083018462000659565b92915050565b60006040820190508181036000830152620007838186886200067b565b905081810360208301526200079a8184866200067b565b905095945050505050565b6000819050602082019050919050565b600081519050919050565b6000602082019050919050565b600082825260208201905092915050565b600082825260208201905092915050565b6000620007fc826200080d565b9050919050565b6000819050919050565b600073ffffffffffffffffffffffffffffffffffffffff82169050919050565b6000819050919050565b600062000844826200084b565b9050919050565b600062000858826200080d565b9050919050565b60006200086c826200082d565b9050919050565b82818337600083830152505050565b6000601f19601f8301169050919050565b6200089e8162000803565b8114620008aa57600080fd5b50565b620008b8816200082d565b8114620008c457600080fd5b5056fe60806040523480156200001157600080fd5b5060405162003890380380620038908339818101604052810190620000379190620004ee565b8181816005908051906020019062000051929190620003cc565b5080600690805190602001906200006a929190620003cc565b5050506000600760006101000a81548160ff021916908315150217905550620000ac6000801b620000a06200013660201b60201c565b6200013e60201b60201c565b620000ed7f9f2df0fed2c77648de5860a4cc508cd0818c85b8b8a1ab4ceeef8d981c8956a6620000e16200013660201b60201c565b6200013e60201b60201c565b6200012e7f65d7a28e3265b37a6474929f336521b332c1681b933f6cb9f3376673440d862a620001226200013660201b60201c565b6200013e60201b60201c565b5050620006d1565b600033905090565b6200015082826200015460201b60201c565b5050565b6200016b82826200019c60201b62000d061760201c565b6200019781600160008581526020019081526020016000206200028d60201b62000de61790919060201c565b505050565b620001ae8282620002c560201b60201c565b6200028957600160008084815260200190815260200160002060000160008373ffffffffffffffffffffffffffffffffffffffff1673ffffffffffffffffffffffffffffffffffffffff16815260200190815260200160002060006101000a81548160ff0219169083151502179055506200022e6200013660201b60201c565b73ffffffffffffffffffffffffffffffffffffffff168173ffffffffffffffffffffffffffffffffffffffff16837f2f8788117e7eff1d82e926ec794901d17c78024a50270940304540a733656f0d60405160405180910390a45b5050565b6000620002bd836000018373ffffffffffffffffffffffffffffffffffffffff1660001b6200032f60201b60201c565b905092915050565b600080600084815260200190815260200160002060000160008373ffffffffffffffffffffffffffffffffffffffff1673ffffffffffffffffffffffffffffffffffffffff16815260200190815260200160002060009054906101000a900460ff16905092915050565b6000620003438383620003a960201b60201c565b6200039e578260000182908060018154018082558091505060019003906000526020600020016000909190919091505582600001805490508360010160008481526020019081526020016000208190555060019050620003a3565b600090505b92915050565b600080836001016000848152602001908152602001600020541415905092915050565b828054620003da90620005f6565b90600052602060002090601f016020900481019282620003fe57600085556200044a565b82601f106200041957805160ff19168380011785556200044a565b828001600101855582156200044a579182015b82811115620004495782518255916020019190600101906200042c565b5b5090506200045991906200045d565b5090565b5b80821115620004785760008160009055506001016200045e565b5090565b6000620004936200048d846200058a565b62000561565b905082815260208101848484011115620004ac57600080fd5b620004b9848285620005c0565b509392505050565b600082601f830112620004d357600080fd5b8151620004e58482602086016200047c565b91505092915050565b600080604083850312156200050257600080fd5b600083015167ffffffffffffffff8111156200051d57600080fd5b6200052b85828601620004c1565b925050602083015167ffffffffffffffff8111156200054957600080fd5b6200055785828601620004c1565b9150509250929050565b60006200056d62000580565b90506200057b82826200062c565b919050565b6000604051905090565b600067ffffffffffffffff821115620005a857620005a762000691565b5b620005b382620006c0565b9050602081019050919050565b60005b83811015620005e0578082015181840152602081019050620005c3565b83811115620005f0576000848401525b50505050565b600060028204905060018216806200060f57607f821691505b6020821081141562000626576200062562000662565b5b50919050565b6200063782620006c0565b810181811067ffffffffffffffff8211171562000659576200065862000691565b5b80604052505050565b7f4e487b7100000000000000000000000000000000000000000000000000000000600052602260045260246000fd5b7f4e487b7100000000000000000000000000000000000000000000000000000000600052604160045260246000fd5b6000601f19601f8301169050919050565b6131af80620006e16000396000f3fe608060405234801561001057600080fd5b50600436106101c45760003560e01c806370a08231116100f9578063a457c2d711610097578063d539139311610071578063d53913931461052d578063d547741f1461054b578063dd62ed3e14610567578063e63ab1e914610597576101c4565b8063a457c2d71461049d578063a9059cbb146104cd578063ca15c873146104fd576101c4565b80639010d07c116100d35780639010d07c1461040157806391d148541461043157806395d89b4114610461578063a217fddf1461047f576101c4565b806370a08231146103ab57806379cc6790146103db5780638456cb59146103f7576101c4565b8063313ce567116101665780633f4ba83a116101405780633f4ba83a1461034b57806340c10f191461035557806342966c68146103715780635c975abb1461038d576101c4565b8063313ce567146102e157806336568abe146102ff578063395093511461031b576101c4565b806318160ddd116101a257806318160ddd1461024757806323b872dd14610265578063248a9ca3146102955780632f2ff15d146102c5576101c4565b806301ffc9a7146101c957806306fdde03146101f9578063095ea7b314610217575b600080fd5b6101e360048036038101906101de9190612281565b6105b5565b6040516101f09190612699565b60405180910390f35b61020161062f565b60405161020e91906126cf565b60405180910390f35b610231600480360381019061022c91906121a4565b6106c1565b60405161023e9190612699565b60405180910390f35b61024f6106e4565b60405161025c9190612931565b60405180910390f35b61027f600480360381019061027a9190612155565b6106ee565b60405161028c9190612699565b60405180910390f35b6102af60048036038101906102aa91906121e0565b61071d565b6040516102bc91906126b4565b60405180910390f35b6102df60048036038101906102da9190612209565b61073c565b005b6102e961075d565b6040516102f6919061294c565b60405180910390f35b61031960048036038101906103149190612209565b610766565b005b610335600480360381019061033091906121a4565b6107e9565b6040516103429190612699565b60405180910390f35b610353610820565b005b61036f600480360381019061036a91906121a4565b61089a565b005b61038b600480360381019061038691906122aa565b610918565b005b61039561092c565b6040516103a29190612699565b60405180910390f35b6103c560048036038101906103c091906120f0565b610943565b6040516103d29190612931565b60405180910390f35b6103f560048036038101906103f091906121a4565b61098c565b005b6103ff6109ac565b005b61041b60048036038101906104169190612245565b610a26565b604051610428919061267e565b60405180910390f35b61044b60048036038101906104469190612209565b610a55565b6040516104589190612699565b60405180910390f35b610469610abf565b60405161047691906126cf565b60405180910390f35b610487610b51565b60405161049491906126b4565b60405180910390f35b6104b760048036038101906104b291906121a4565b610b58565b6040516104c49190612699565b60405180910390f35b6104e760048036038101906104e291906121a4565b610bcf565b6040516104f49190612699565b60405180910390f35b610517600480360381019061051291906121e0565b610bf2565b6040516105249190612931565b60405180910390f35b610535610c16565b60405161054291906126b4565b60405180910390f35b61056560048036038101906105609190612209565b610c3a565b005b610581600480360381019061057c9190612119565b610c5b565b60405161058e9190612931565b60405180910390f35b61059f610ce2565b6040516105ac91906126b4565b60405180910390f35b60007f5a05180f000000000000000000000000000000000000000000000000000000007bffffffffffffffffffffffffffffffffffffffffffffffffffffffff1916827bffffffffffffffffffffffffffffffffffffffffffffffffffffffff19161480610628575061062782610e16565b5b9050919050565b60606005805461063e90612b5a565b80601f016020809104026020016040519081016040528092919081815260200182805461066a90612b5a565b80156106b75780601f1061068c576101008083540402835291602001916106b7565b820191906000526020600020905b81548152906001019060200180831161069a57829003601f168201915b5050505050905090565b6000806106cc610e90565b90506106d9818585610e98565b600191505092915050565b6000600454905090565b6000806106f9610e90565b9050610706858285611063565b6107118585856110ef565b60019150509392505050565b6000806000838152602001908152602001600020600101549050919050565b6107458261071d565b61074e81611373565b6107588383611387565b505050565b60006012905090565b61076e610e90565b73ffffffffffffffffffffffffffffffffffffffff168173ffffffffffffffffffffffffffffffffffffffff16146107db576040517f08c379a00000000000000000000000000000000000000000000000000000000081526004016107d2906128d1565b60405180910390fd5b6107e582826113bb565b5050565b6000806107f4610e90565b90506108158185856108068589610c5b565b610810919061298e565b610e98565b600191505092915050565b6108517f65d7a28e3265b37a6474929f336521b332c1681b933f6cb9f3376673440d862a61084c610e90565b610a55565b610890576040517f08c379a000000000000000000000000000000000000000000000000000000000815260040161088790612771565b60405180910390fd5b6108986113ef565b565b6108cb7f9f2df0fed2c77648de5860a4cc508cd0818c85b8b8a1ab4ceeef8d981c8956a66108c6610e90565b610a55565b61090a576040517f08c379a000000000000000000000000000000000000000000000000000000000815260040161090190612811565b60405180910390fd5b6109148282611491565b5050565b610929610923610e90565b826115f2565b50565b6000600760009054906101000a900460ff16905090565b6000600260008373ffffffffffffffffffffffffffffffffffffffff1673ffffffffffffffffffffffffffffffffffffffff168152602001908152602001600020549050919050565b61099e82610998610e90565b83611063565b6109a882826115f2565b5050565b6109dd7f65d7a28e3265b37a6474929f336521b332c1681b933f6cb9f3376673440d862a6109d8610e90565b610a55565b610a1c576040517f08c379a0000000000000000000000000000000000000000000000000000000008152600401610a1390612891565b60405180910390fd5b610a246117cb565b565b6000610a4d826001600086815260200190815260200160002061186e90919063ffffffff16565b905092915050565b600080600084815260200190815260200160002060000160008373ffffffffffffffffffffffffffffffffffffffff1673ffffffffffffffffffffffffffffffffffffffff16815260200190815260200160002060009054906101000a900460ff16905092915050565b606060068054610ace90612b5a565b80601f0160208091040260200160405190810160405280929190818152602001828054610afa90612b5a565b8015610b475780601f10610b1c57610100808354040283529160200191610b47565b820191906000526020600020905b815481529060010190602001808311610b2a57829003601f168201915b5050505050905090565b6000801b81565b600080610b63610e90565b90506000610b718286610c5b565b905083811015610bb6576040517f08c379a0000000000000000000000000000000000000000000000000000000008152600401610bad906128b1565b60405180910390fd5b610bc38286868403610e98565b60019250505092915050565b600080610bda610e90565b9050610be78185856110ef565b600191505092915050565b6000610c0f60016000848152602001908152602001600020611888565b9050919050565b7f9f2df0fed2c77648de5860a4cc508cd0818c85b8b8a1ab4ceeef8d981c8956a681565b610c438261071d565b610c4c81611373565b610c5683836113bb565b505050565b6000600360008473ffffffffffffffffffffffffffffffffffffffff1673ffffffffffffffffffffffffffffffffffffffff16815260200190815260200160002060008373ffffffffffffffffffffffffffffffffffffffff1673ffffffffffffffffffffffffffffffffffffffff16815260200190815260200160002054905092915050565b7f65d7a28e3265b37a6474929f336521b332c1681b933f6cb9f3376673440d862a81565b610d108282610a55565b610de257600160008084815260200190815260200160002060000160008373ffffffffffffffffffffffffffffffffffffffff1673ffffffffffffffffffffffffffffffffffffffff16815260200190815260200160002060006101000a81548160ff021916908315150217905550610d87610e90565b73ffffffffffffffffffffffffffffffffffffffff168173ffffffffffffffffffffffffffffffffffffffff16837f2f8788117e7eff1d82e926ec794901d17c78024a50270940304540a733656f0d60405160405180910390a45b5050565b6000610e0e836000018373ffffffffffffffffffffffffffffffffffffffff1660001b61189d565b905092915050565b60007f7965db0b000000000000000000000000000000000000000000000000000000007bffffffffffffffffffffffffffffffffffffffffffffffffffffffff1916827bffffffffffffffffffffffffffffffffffffffffffffffffffffffff19161480610e895750610e888261190d565b5b9050919050565b600033905090565b600073ffffffffffffffffffffffffffffffffffffffff168373ffffffffffffffffffffffffffffffffffffffff161415610f08576040517f08c379a0000000000000000000000000000000000000000000000000000000008152600401610eff90612871565b60405180910390fd5b600073ffffffffffffffffffffffffffffffffffffffff168273ffffffffffffffffffffffffffffffffffffffff161415610f78576040517f08c379a0000000000000000000000000000000000000000000000000000000008152600401610f6f90612791565b60405180910390fd5b80600360008573ffffffffffffffffffffffffffffffffffffffff1673ffffffffffffffffffffffffffffffffffffffff16815260200190815260200160002060008473ffffffffffffffffffffffffffffffffffffffff1673ffffffffffffffffffffffffffffffffffffffff168152602001908152602001600020819055508173ffffffffffffffffffffffffffffffffffffffff168373ffffffffffffffffffffffffffffffffffffffff167f8c5be1e5ebec7d5bd14f71427d1e84f3dd0314c0f7b2291e5b200ac8c7c3b925836040516110569190612931565b60405180910390a3505050565b600061106f8484610c5b565b90507fffffffffffffffffffffffffffffffffffffffffffffffffffffffffffffffff81146110e957818110156110db576040517f08c379a00000000000000000000000000000000000000000000000000000000081526004016110d2906127b1565b60405180910390fd5b6110e88484848403610e98565b5b50505050565b600073ffffffffffffffffffffffffffffffffffffffff168373ffffffffffffffffffffffffffffffffffffffff16141561115f576040517f08c379a000000000000000000000000000000000000000000000000000000000815260040161115690612851565b60405180910390fd5b600073ffffffffffffffffffffffffffffffffffffffff168273ffffffffffffffffffffffffffffffffffffffff1614156111cf576040517f08c379a00000000000000000000000000000000000000000000000000000000081526004016111c690612711565b60405180910390fd5b6111da838383611977565b6000600260008573ffffffffffffffffffffffffffffffffffffffff1673ffffffffffffffffffffffffffffffffffffffff16815260200190815260200160002054905081811015611261576040517f08c379a0000000000000000000000000000000000000000000000000000000008152600401611258906127d1565b60405180910390fd5b818103600260008673ffffffffffffffffffffffffffffffffffffffff1673ffffffffffffffffffffffffffffffffffffffff1681526020019081526020016000208190555081600260008573ffffffffffffffffffffffffffffffffffffffff1673ffffffffffffffffffffffffffffffffffffffff16815260200190815260200160002060008282546112f6919061298e565b925050819055508273ffffffffffffffffffffffffffffffffffffffff168473ffffffffffffffffffffffffffffffffffffffff167fddf252ad1be2c89b69c2b068fc378daa952ba7f163c4a11628f55a4df523b3ef8460405161135a9190612931565b60405180910390a361136d848484611987565b50505050565b6113848161137f610e90565b61198c565b50565b6113918282610d06565b6113b68160016000858152602001908152602001600020610de690919063ffffffff16565b505050565b6113c58282611a29565b6113ea8160016000858152602001908152602001600020611b0a90919063ffffffff16565b505050565b6113f761092c565b611436576040517f08c379a000000000000000000000000000000000000000000000000000000000815260040161142d90612731565b60405180910390fd5b6000600760006101000a81548160ff0219169083151502179055507f5db9ee0a495bf2e6ff9c91a7834c1ba4fdd244a5e8aa4e537bd38aeae4b073aa61147a610e90565b604051611487919061267e565b60405180910390a1565b600073ffffffffffffffffffffffffffffffffffffffff168273ffffffffffffffffffffffffffffffffffffffff161415611501576040517f08c379a00000000000000000000000000000000000000000000000000000000081526004016114f8906128f1565b60405180910390fd5b61150d60008383611977565b806004600082825461151f919061298e565b9250508190555080600260008473ffffffffffffffffffffffffffffffffffffffff1673ffffffffffffffffffffffffffffffffffffffff1681526020019081526020016000206000828254611575919061298e565b925050819055508173ffffffffffffffffffffffffffffffffffffffff16600073ffffffffffffffffffffffffffffffffffffffff167fddf252ad1be2c89b69c2b068fc378daa952ba7f163c4a11628f55a4df523b3ef836040516115da9190612931565b60405180910390a36115ee60008383611987565b5050565b600073ffffffffffffffffffffffffffffffffffffffff168273ffffffffffffffffffffffffffffffffffffffff161415611662576040517f08c379a000000000000000000000000000000000000000000000000000000000815260040161165990612831565b60405180910390fd5b61166e82600083611977565b6000600260008473ffffffffffffffffffffffffffffffffffffffff1673ffffffffffffffffffffffffffffffffffffffff168152602001908152602001600020549050818110156116f5576040517f08c379a00000000000000000000000000000000000000000000000000000000081526004016116ec90612751565b60405180910390fd5b818103600260008573ffffffffffffffffffffffffffffffffffffffff1673ffffffffffffffffffffffffffffffffffffffff16815260200190815260200160002081905550816004600082825461174d9190612a3e565b92505081905550600073ffffffffffffffffffffffffffffffffffffffff168373ffffffffffffffffffffffffffffffffffffffff167fddf252ad1be2c89b69c2b068fc378daa952ba7f163c4a11628f55a4df523b3ef846040516117b29190612931565b60405180910390a36117c683600084611987565b505050565b6117d361092c565b15611813576040517f08c379a000000000000000000000000000000000000000000000000000000000815260040161180a906127f1565b60405180910390fd5b6001600760006101000a81548160ff0219169083151502179055507f62e78cea01bee320cd4e420270b5ea74000d11b0c9f74754ebdbfc544b05a258611857610e90565b604051611864919061267e565b60405180910390a1565b600061187d8360000183611b3a565b60001c905092915050565b600061189682600001611b8b565b9050919050565b60006118a98383611b9c565b611902578260000182908060018154018082558091505060019003906000526020600020016000909190919091505582600001805490508360010160008481526020019081526020016000208190555060019050611907565b600090505b92915050565b60007f01ffc9a7000000000000000000000000000000000000000000000000000000007bffffffffffffffffffffffffffffffffffffffffffffffffffffffff1916827bffffffffffffffffffffffffffffffffffffffffffffffffffffffff1916149050919050565b611982838383611bbf565b505050565b505050565b6119968282610a55565b611a25576119bb8173ffffffffffffffffffffffffffffffffffffffff166014611c17565b6119c98360001c6020611c17565b6040516020016119da929190612644565b6040516020818303038152906040526040517f08c379a0000000000000000000000000000000000000000000000000000000008152600401611a1c91906126cf565b60405180910390fd5b5050565b611a338282610a55565b15611b0657600080600084815260200190815260200160002060000160008373ffffffffffffffffffffffffffffffffffffffff1673ffffffffffffffffffffffffffffffffffffffff16815260200190815260200160002060006101000a81548160ff021916908315150217905550611aab610e90565b73ffffffffffffffffffffffffffffffffffffffff168173ffffffffffffffffffffffffffffffffffffffff16837ff6391f5c32d9c69d2a47ea670b442974b53935d1edc7fd64eb21e047a839171b60405160405180910390a45b5050565b6000611b32836000018373ffffffffffffffffffffffffffffffffffffffff1660001b611f11565b905092915050565b6000826000018281548110611b78577f4e487b7100000000000000000000000000000000000000000000000000000000600052603260045260246000fd5b9060005260206000200154905092915050565b600081600001805490509050919050565b600080836001016000848152602001908152602001600020541415905092915050565b611bca838383612097565b611bd261092c565b15611c12576040517f08c379a0000000000000000000000000000000000000000000000000000000008152600401611c0990612911565b60405180910390fd5b505050565b606060006002836002611c2a91906129e4565b611c34919061298e565b67ffffffffffffffff811115611c73577f4e487b7100000000000000000000000000000000000000000000000000000000600052604160045260246000fd5b6040519080825280601f01601f191660200182016040528015611ca55781602001600182028036833780820191505090505b5090507f300000000000000000000000000000000000000000000000000000000000000081600081518110611d03577f4e487b7100000000000000000000000000000000000000000000000000000000600052603260045260246000fd5b60200101907effffffffffffffffffffffffffffffffffffffffffffffffffffffffffffff1916908160001a9053507f780000000000000000000000000000000000000000000000000000000000000081600181518110611d8d577f4e487b7100000000000000000000000000000000000000000000000000000000600052603260045260246000fd5b60200101907effffffffffffffffffffffffffffffffffffffffffffffffffffffffffffff1916908160001a90535060006001846002611dcd91906129e4565b611dd7919061298e565b90505b6001811115611ec3577f3031323334353637383961626364656600000000000000000000000000000000600f861660108110611e3f577f4e487b7100000000000000000000000000000000000000000000000000000000600052603260045260246000fd5b1a60f81b828281518110611e7c577f4e487b7100000000000000000000000000000000000000000000000000000000600052603260045260246000fd5b60200101907effffffffffffffffffffffffffffffffffffffffffffffffffffffffffffff1916908160001a905350600485901c945080611ebc90612b30565b9050611dda565b5060008414611f07576040517f08c379a0000000000000000000000000000000000000000000000000000000008152600401611efe906126f1565b60405180910390fd5b8091505092915050565b6000808360010160008481526020019081526020016000205490506000811461208b576000600182611f439190612a3e565b9050600060018660000180549050611f5b9190612a3e565b9050818114612016576000866000018281548110611fa2577f4e487b7100000000000000000000000000000000000000000000000000000000600052603260045260246000fd5b9060005260206000200154905080876000018481548110611fec577f4e487b7100000000000000000000000000000000000000000000000000000000600052603260045260246000fd5b90600052602060002001819055508387600101600083815260200190815260200160002081905550505b85600001805480612050577f4e487b7100000000000000000000000000000000000000000000000000000000600052603160045260246000fd5b600190038181906000526020600020016000905590558560010160008681526020019081526020016000206000905560019350505050612091565b60009150505b92915050565b505050565b6000813590506120ab8161311d565b92915050565b6000813590506120c081613134565b92915050565b6000813590506120d58161314b565b92915050565b6000813590506120ea81613162565b92915050565b60006020828403121561210257600080fd5b60006121108482850161209c565b91505092915050565b6000806040838503121561212c57600080fd5b600061213a8582860161209c565b925050602061214b8582860161209c565b9150509250929050565b60008060006060848603121561216a57600080fd5b60006121788682870161209c565b93505060206121898682870161209c565b925050604061219a868287016120db565b9150509250925092565b600080604083850312156121b757600080fd5b60006121c58582860161209c565b92505060206121d6858286016120db565b9150509250929050565b6000602082840312156121f257600080fd5b6000612200848285016120b1565b91505092915050565b6000806040838503121561221c57600080fd5b600061222a858286016120b1565b925050602061223b8582860161209c565b9150509250929050565b6000806040838503121561225857600080fd5b6000612266858286016120b1565b9250506020612277858286016120db565b9150509250929050565b60006020828403121561229357600080fd5b60006122a1848285016120c6565b91505092915050565b6000602082840312156122bc57600080fd5b60006122ca848285016120db565b91505092915050565b6122dc81612a72565b82525050565b6122eb81612a84565b82525050565b6122fa81612a90565b82525050565b600061230b82612967565b6123158185612972565b9350612325818560208601612afd565b61232e81612bea565b840191505092915050565b600061234482612967565b61234e8185612983565b935061235e818560208601612afd565b80840191505092915050565b6000612377602083612972565b915061238282612bfb565b602082019050919050565b600061239a602383612972565b91506123a582612c24565b604082019050919050565b60006123bd601483612972565b91506123c882612c73565b602082019050919050565b60006123e0602283612972565b91506123eb82612c9c565b604082019050919050565b6000612403603983612972565b915061240e82612ceb565b604082019050919050565b6000612426602283612972565b915061243182612d3a565b604082019050919050565b6000612449601d83612972565b915061245482612d89565b602082019050919050565b600061246c602683612972565b915061247782612db2565b604082019050919050565b600061248f601083612972565b915061249a82612e01565b602082019050919050565b60006124b2603683612972565b91506124bd82612e2a565b604082019050919050565b60006124d5602183612972565b91506124e082612e79565b604082019050919050565b60006124f8602583612972565b915061250382612ec8565b604082019050919050565b600061251b602483612972565b915061252682612f17565b604082019050919050565b600061253e603783612972565b915061254982612f66565b604082019050919050565b6000612561601783612983565b915061256c82612fb5565b601782019050919050565b6000612584602583612972565b915061258f82612fde565b604082019050919050565b60006125a7601183612983565b91506125b28261302d565b601182019050919050565b60006125ca602f83612972565b91506125d582613056565b604082019050919050565b60006125ed601f83612972565b91506125f8826130a5565b602082019050919050565b6000612610602a83612972565b915061261b826130ce565b604082019050919050565b61262f81612ae6565b82525050565b61263e81612af0565b82525050565b600061264f82612554565b915061265b8285612339565b91506126668261259a565b91506126728284612339565b91508190509392505050565b600060208201905061269360008301846122d3565b92915050565b60006020820190506126ae60008301846122e2565b92915050565b60006020820190506126c960008301846122f1565b92915050565b600060208201905081810360008301526126e98184612300565b905092915050565b6000602082019050818103600083015261270a8161236a565b9050919050565b6000602082019050818103600083015261272a8161238d565b9050919050565b6000602082019050818103600083015261274a816123b0565b9050919050565b6000602082019050818103600083015261276a816123d3565b9050919050565b6000602082019050818103600083015261278a816123f6565b9050919050565b600060208201905081810360008301526127aa81612419565b9050919050565b600060208201905081810360008301526127ca8161243c565b9050919050565b600060208201905081810360008301526127ea8161245f565b9050919050565b6000602082019050818103600083015261280a81612482565b9050919050565b6000602082019050818103600083015261282a816124a5565b9050919050565b6000602082019050818103600083015261284a816124c8565b9050919050565b6000602082019050818103600083015261286a816124eb565b9050919050565b6000602082019050818103600083015261288a8161250e565b9050919050565b600060208201905081810360008301526128aa81612531565b9050919050565b600060208201905081810360008301526128ca81612577565b9050919050565b600060208201905081810360008301526128ea816125bd565b9050919050565b6000602082019050818103600083015261290a816125e0565b9050919050565b6000602082019050818103600083015261292a81612603565b9050919050565b60006020820190506129466000830184612626565b92915050565b60006020820190506129616000830184612635565b92915050565b600081519050919050565b600082825260208201905092915050565b600081905092915050565b600061299982612ae6565b91506129a483612ae6565b9250827fffffffffffffffffffffffffffffffffffffffffffffffffffffffffffffffff038211156129d9576129d8612b8c565b5b828201905092915050565b60006129ef82612ae6565b91506129fa83612ae6565b9250817fffffffffffffffffffffffffffffffffffffffffffffffffffffffffffffffff0483118215151615612a3357612a32612b8c565b5b828202905092915050565b6000612a4982612ae6565b9150612a5483612ae6565b925082821015612a6757612a66612b8c565b5b828203905092915050565b6000612a7d82612ac6565b9050919050565b60008115159050919050565b6000819050919050565b60007fffffffff0000000000000000000000000000000000000000000000000000000082169050919050565b600073ffffffffffffffffffffffffffffffffffffffff82169050919050565b6000819050919050565b600060ff82169050919050565b60005b83811015612b1b578082015181840152602081019050612b00565b83811115612b2a576000848401525b50505050565b6000612b3b82612ae6565b91506000821415612b4f57612b4e612b8c565b5b600182039050919050565b60006002820490506001821680612b7257607f821691505b60208210811415612b8657612b85612bbb565b5b50919050565b7f4e487b7100000000000000000000000000000000000000000000000000000000600052601160045260246000fd5b7f4e487b7100000000000000000000000000000000000000000000000000000000600052602260045260246000fd5b6000601f19601f8301169050919050565b7f537472696e67733a20686578206c656e67746820696e73756666696369656e74600082015250565b7f45524332303a207472616e7366657220746f20746865207a65726f206164647260008201527f6573730000000000000000000000000000000000000000000000000000000000602082015250565b7f5061757361626c653a206e6f7420706175736564000000000000000000000000600082015250565b7f45524332303a206275726e20616d6f756e7420657863656564732062616c616e60008201527f6365000000000000000000000000000000000000000000000000000000000000602082015250565b7f45524332305072657365744d696e7465725061757365723a206d75737420686160008201527f76652070617573657220726f6c6520746f20756e706175736500000000000000602082015250565b7f45524332303a20617070726f766520746f20746865207a65726f20616464726560008201527f7373000000000000000000000000000000000000000000000000000000000000602082015250565b7f45524332303a20696e73756666696369656e7420616c6c6f77616e6365000000600082015250565b7f45524332303a207472616e7366657220616d6f756e742065786365656473206260008201527f616c616e63650000000000000000000000000000000000000000000000000000602082015250565b7f5061757361626c653a2070617573656400000000000000000000000000000000600082015250565b7f45524332305072657365744d696e7465725061757365723a206d75737420686160008201527f7665206d696e74657220726f6c6520746f206d696e7400000000000000000000602082015250565b7f45524332303a206275726e2066726f6d20746865207a65726f2061646472657360008201527f7300000000000000000000000000000000000000000000000000000000000000602082015250565b7f45524332303a207472616e736665722066726f6d20746865207a65726f20616460008201527f6472657373000000000000000000000000000000000000000000000000000000602082015250565b7f45524332303a20617070726f76652066726f6d20746865207a65726f2061646460008201527f7265737300000000000000000000000000000000000000000000000000000000602082015250565b7f45524332305072657365744d696e7465725061757365723a206d75737420686160008201527f76652070617573657220726f6c6520746f207061757365000000000000000000602082015250565b7f416363657373436f6e74726f6c3a206163636f756e7420000000000000000000600082015250565b7f45524332303a2064656372656173656420616c6c6f77616e63652062656c6f7760008201527f207a65726f000000000000000000000000000000000000000000000000000000602082015250565b7f206973206d697373696e6720726f6c6520000000000000000000000000000000600082015250565b7f416363657373436f6e74726f6c3a2063616e206f6e6c792072656e6f756e636560008201527f20726f6c657320666f722073656c660000000000000000000000000000000000602082015250565b7f45524332303a206d696e7420746f20746865207a65726f206164647265737300600082015250565b7f45524332305061757361626c653a20746f6b656e207472616e7366657220776860008201527f696c652070617573656400000000000000000000000000000000000000000000602082015250565b61312681612a72565b811461313157600080fd5b50565b61313d81612a90565b811461314857600080fd5b50565b61315481612a9a565b811461315f57600080fd5b50565b61316b81612ae6565b811461317657600080fd5b5056fea2646970667358221220058c703e5111a8f3e706162aacb406d2af2e5087964cf12c082cb3b30437e59864736f6c63430008040033a2646970667358221220b51520048327f4d60e0571525404f6143d91a23fa4d54dd65de18bdbbee42f9064736f6c63430008040033",
  "immutableReferences": {},
  "source": "// // SPDX-License-Identifier: UNLICENSED\n\npragma solidity ^0.8.4;\n\nimport \"@openzeppelin/contracts/token/ERC20/IERC20.sol\";\nimport \"@openzeppelin/contracts/utils/math/SafeMath.sol\";\nimport \"@openzeppelin/contracts/token/ERC20/presets/ERC20PresetMinterPauser.sol\";\n\ncontract ERC20Factory {\n    IERC20[] public tokens;\n\n    address public owner;\n\n    constructor() {\n        owner = msg.sender;\n    }\n\n    function createToken(string calldata name, string calldata symbol) public {\n        ERC20PresetMinterPauser token = new ERC20PresetMinterPauser(name, symbol);\n        token.grantRole(token.MINTER_ROLE(), owner);\n        token.mint(owner, 10000 ether);\n        tokens.push(token);\n    }\n\n    function getTokens() public view returns (IERC20[] memory _tokens) {\n        _tokens = tokens;\n    }\n}",
  "sourcePath": "/home/jeffrey/Documents/_projects/react-projects/Arbicrypt-fixed/contracts/ERC20Factory.sol",
  "compiler": {
    "name": "solc",
    "version": "0.8.4+commit.c7e474f2.Emscripten.clang"
  },
  "schemaVersion": "3.4.7",
  "updatedAt": "2022-05-09T01:41:51.518Z",
  "networkType": "ethereum",
  "devdoc": {
    "kind": "dev",
    "methods": {},
    "version": 1
  },
  "userdoc": {
    "kind": "user",
    "methods": {},
    "version": 1
  }
}