{
  "contractName": "Staker",
  "abi": [
    {
      "inputs": [
        {
          "internalType": "address",
          "name": "_depositToken",
          "type": "address"
        },
        {
          "internalType": "address",
          "name": "_rewardToken",
          "type": "address"
        }
      ],
      "stateMutability": "nonpayable",
      "type": "constructor"
    },
    {
      "anonymous": false,
      "inputs": [
        {
          "indexed": false,
          "internalType": "uint256",
          "name": "amount",
          "type": "uint256"
        },
        {
          "indexed": false,
          "internalType": "uint256",
          "name": "lengthInDays",
          "type": "uint256"
        }
      ],
      "name": "AddRewards",
      "type": "event"
    },
    {
      "anonymous": false,
      "inputs": [
        {
          "indexed": true,
          "internalType": "address",
          "name": "user",
          "type": "address"
        },
        {
          "indexed": false,
          "internalType": "uint256",
          "name": "amount",
          "type": "uint256"
        }
      ],
      "name": "ClaimReward",
      "type": "event"
    },
    {
      "anonymous": false,
      "inputs": [
        {
          "indexed": true,
          "internalType": "address",
          "name": "user",
          "type": "address"
        },
        {
          "indexed": false,
          "internalType": "uint256",
          "name": "amount",
          "type": "uint256"
        }
      ],
      "name": "Deposit",
      "type": "event"
    },
    {
      "anonymous": false,
      "inputs": [
        {
          "indexed": true,
          "internalType": "address",
          "name": "previousOwner",
          "type": "address"
        },
        {
          "indexed": true,
          "internalType": "address",
          "name": "newOwner",
          "type": "address"
        }
      ],
      "name": "OwnershipTransferred",
      "type": "event"
    },
    {
      "anonymous": false,
      "inputs": [
        {
          "indexed": false,
          "internalType": "uint256",
          "name": "amount",
          "type": "uint256"
        }
      ],
      "name": "Skim",
      "type": "event"
    },
    {
      "anonymous": false,
      "inputs": [
        {
          "indexed": true,
          "internalType": "address",
          "name": "user",
          "type": "address"
        },
        {
          "indexed": false,
          "internalType": "uint256",
          "name": "amount",
          "type": "uint256"
        }
      ],
      "name": "Withdraw",
      "type": "event"
    },
    {
      "inputs": [],
      "name": "accumulatedRewardPerShare",
      "outputs": [
        {
          "internalType": "uint256",
          "name": "",
          "type": "uint256"
        }
      ],
      "stateMutability": "view",
      "type": "function"
    },
    {
      "inputs": [],
      "name": "depositToken",
      "outputs": [
        {
          "internalType": "contract IERC20",
          "name": "",
          "type": "address"
        }
      ],
      "stateMutability": "view",
      "type": "function"
    },
    {
      "inputs": [],
      "name": "lastRewardTimestamp",
      "outputs": [
        {
          "internalType": "uint256",
          "name": "",
          "type": "uint256"
        }
      ],
      "stateMutability": "view",
      "type": "function"
    },
    {
      "inputs": [],
      "name": "owner",
      "outputs": [
        {
          "internalType": "address",
          "name": "",
          "type": "address"
        }
      ],
      "stateMutability": "view",
      "type": "function"
    },
    {
      "inputs": [],
      "name": "renounceOwnership",
      "outputs": [],
      "stateMutability": "nonpayable",
      "type": "function"
    },
    {
      "inputs": [],
      "name": "rewardPerSecond",
      "outputs": [
        {
          "internalType": "uint256",
          "name": "",
          "type": "uint256"
        }
      ],
      "stateMutability": "view",
      "type": "function"
    },
    {
      "inputs": [],
      "name": "rewardPeriodEndTimestamp",
      "outputs": [
        {
          "internalType": "uint256",
          "name": "",
          "type": "uint256"
        }
      ],
      "stateMutability": "view",
      "type": "function"
    },
    {
      "inputs": [],
      "name": "rewardToken",
      "outputs": [
        {
          "internalType": "contract IERC20",
          "name": "",
          "type": "address"
        }
      ],
      "stateMutability": "view",
      "type": "function"
    },
    {
      "inputs": [],
      "name": "totalStaked",
      "outputs": [
        {
          "internalType": "uint256",
          "name": "",
          "type": "uint256"
        }
      ],
      "stateMutability": "view",
      "type": "function"
    },
    {
      "inputs": [
        {
          "internalType": "address",
          "name": "newOwner",
          "type": "address"
        }
      ],
      "name": "transferOwnership",
      "outputs": [],
      "stateMutability": "nonpayable",
      "type": "function"
    },
    {
      "inputs": [
        {
          "internalType": "uint256",
          "name": "_rewardsAmount",
          "type": "uint256"
        },
        {
          "internalType": "uint256",
          "name": "_lengthInDays",
          "type": "uint256"
        }
      ],
      "name": "addRewards",
      "outputs": [],
      "stateMutability": "nonpayable",
      "type": "function"
    },
    {
      "inputs": [],
      "name": "updateRewards",
      "outputs": [],
      "stateMutability": "nonpayable",
      "type": "function"
    },
    {
      "inputs": [
        {
          "internalType": "uint256",
          "name": "_amount",
          "type": "uint256"
        }
      ],
      "name": "deposit",
      "outputs": [],
      "stateMutability": "nonpayable",
      "type": "function"
    },
    {
      "inputs": [
        {
          "internalType": "uint256",
          "name": "_amount",
          "type": "uint256"
        }
      ],
      "name": "withdraw",
      "outputs": [],
      "stateMutability": "nonpayable",
      "type": "function"
    },
    {
      "inputs": [],
      "name": "claim",
      "outputs": [],
      "stateMutability": "nonpayable",
      "type": "function"
    },
    {
      "inputs": [],
      "name": "skim",
      "outputs": [],
      "stateMutability": "nonpayable",
      "type": "function"
    },
    {
      "inputs": [
        {
          "internalType": "address",
          "name": "_user",
          "type": "address"
        }
      ],
      "name": "pendingRewards",
      "outputs": [
        {
          "internalType": "uint256",
          "name": "",
          "type": "uint256"
        }
      ],
      "stateMutability": "view",
      "type": "function"
    },
    {
      "inputs": [],
      "name": "getFrontendView",
      "outputs": [
        {
          "internalType": "uint256",
          "name": "_rewardPerSecond",
          "type": "uint256"
        },
        {
          "internalType": "uint256",
          "name": "_secondsLeft",
          "type": "uint256"
        },
        {
          "internalType": "uint256",
          "name": "_deposited",
          "type": "uint256"
        },
        {
          "internalType": "uint256",
          "name": "_pending",
          "type": "uint256"
        }
      ],
      "stateMutability": "view",
      "type": "function"
    }
  ],
  "bytecode": "0x60806040523480156200001157600080fd5b5060405162002309380380620023098339818101604052810190620000379190620001c4565b620000576200004b620000e160201b60201c565b620000e960201b60201c565b81600260006101000a81548173ffffffffffffffffffffffffffffffffffffffff021916908373ffffffffffffffffffffffffffffffffffffffff16021790555080600360006101000a81548173ffffffffffffffffffffffffffffffffffffffff021916908373ffffffffffffffffffffffffffffffffffffffff160217905550505062000253565b600033905090565b60008060009054906101000a900473ffffffffffffffffffffffffffffffffffffffff169050816000806101000a81548173ffffffffffffffffffffffffffffffffffffffff021916908373ffffffffffffffffffffffffffffffffffffffff1602179055508173ffffffffffffffffffffffffffffffffffffffff168173ffffffffffffffffffffffffffffffffffffffff167f8be0079c531659141344cd1fd0a4f28419497f9722a3daafe3b4186f6b6457e060405160405180910390a35050565b600081519050620001be8162000239565b92915050565b60008060408385031215620001d857600080fd5b6000620001e885828601620001ad565b9250506020620001fb85828601620001ad565b9150509250929050565b6000620002128262000219565b9050919050565b600073ffffffffffffffffffffffffffffffffffffffff82169050919050565b620002448162000205565b81146200025057600080fd5b50565b6120a680620002636000396000f3fe608060405234801561001057600080fd5b50600436106101165760003560e01c80638f10369a116100a2578063cfc2b32011610071578063cfc2b32014610262578063f2fde38b14610280578063f7c618c11461029c578063f8077fae146102ba578063fc41aa09146102d857610116565b80638f10369a146101e9578063abed2e7f14610207578063b6b55f2514610228578063c89039c51461024457610116565b80633e158b0c116100e95780633e158b0c1461018f5780634e71d92d14610199578063715018a6146101a3578063817b1cd2146101ad5780638da5cb5b146101cb57610116565b80631dd19cb41461011b5780632e1a7d4d1461012557806331d7a2621461014157806336d4219514610171575b600080fd5b6101236102f4565b005b61013f600480360381019061013a919061188f565b61056c565b005b61015b6004803603810190610156919061183d565b610961565b6040516101689190611bf8565b60405180910390f35b610179610ac7565b6040516101869190611bf8565b60405180910390f35b610197610acd565b005b6101a1610bb2565b005b6101ab610dfd565b005b6101b5610e85565b6040516101c29190611bf8565b60405180910390f35b6101d3610e8b565b6040516101e09190611a62565b60405180910390f35b6101f1610eb4565b6040516101fe9190611bf8565b60405180910390f35b61020f610eba565b60405161021f9493929190611c3c565b60405180910390f35b610242600480360381019061023d919061188f565b610f51565b005b61024c61130f565b6040516102599190611add565b60405180910390f35b61026a611335565b6040516102779190611bf8565b60405180910390f35b61029a6004803603810190610295919061183d565b61133b565b005b6102a4611433565b6040516102b19190611add565b60405180910390f35b6102c2611459565b6040516102cf9190611bf8565b60405180910390f35b6102f260048036038101906102ed91906118e1565b61145f565b005b6102fc6116c5565b73ffffffffffffffffffffffffffffffffffffffff1661031a610e8b565b73ffffffffffffffffffffffffffffffffffffffff1614610370576040517f08c379a000000000000000000000000000000000000000000000000000000000815260040161036790611b98565b60405180910390fd5b6000600260009054906101000a900473ffffffffffffffffffffffffffffffffffffffff1673ffffffffffffffffffffffffffffffffffffffff166370a08231306040518263ffffffff1660e01b81526004016103cd9190611a62565b60206040518083038186803b1580156103e557600080fd5b505afa1580156103f9573d6000803e3d6000fd5b505050506040513d601f19601f8201168201806040525081019061041d91906118b8565b9050600454811115610569576000610440600454836116cd90919063ffffffff16565b9050600260009054906101000a900473ffffffffffffffffffffffffffffffffffffffff1673ffffffffffffffffffffffffffffffffffffffff1663a9059cbb33836040518363ffffffff1660e01b815260040161049f929190611ab4565b602060405180830381600087803b1580156104b957600080fd5b505af11580156104cd573d6000803e3d6000fd5b505050506040513d601f19601f820116820180604052508101906104f19190611866565b610530576040517f08c379a000000000000000000000000000000000000000000000000000000000815260040161052790611bd8565b60405180910390fd5b7f09639ca13db231feb5ad02aa7a3e9d59549523814fbf88e0f7b51412c7d482518160405161055f9190611bf8565b60405180910390a1505b50565b6000600160003373ffffffffffffffffffffffffffffffffffffffff1673ffffffffffffffffffffffffffffffffffffffff168152602001908152602001600020905081816000015410156105f6576040517f08c379a00000000000000000000000000000000000000000000000000000000081526004016105ed90611bb8565b60405180910390fd5b6105fe610acd565b600061065b826001015461064d6298968061063f64e8d4a5100061063160085489600001546116e390919063ffffffff16565b6116f990919063ffffffff16565b6116f990919063ffffffff16565b6116cd90919063ffffffff16565b9050600360009054906101000a900473ffffffffffffffffffffffffffffffffffffffff1673ffffffffffffffffffffffffffffffffffffffff1663a9059cbb33836040518363ffffffff1660e01b81526004016106ba929190611ab4565b602060405180830381600087803b1580156106d457600080fd5b505af11580156106e8573d6000803e3d6000fd5b505050506040513d601f19601f8201168201806040525081019061070c9190611866565b61074b576040517f08c379a000000000000000000000000000000000000000000000000000000000815260040161074290611b58565b60405180910390fd5b3373ffffffffffffffffffffffffffffffffffffffff167fba8de60c3403ec381d1d484652ea1980e3c3e56359195c92525bff4ce47ad98e826040516107919190611bf8565b60405180910390a26107b08383600001546116cd90919063ffffffff16565b82600001819055506107cd836004546116cd90919063ffffffff16565b6004819055506108186298968061080a64e8d4a510006107fc60085487600001546116e390919063ffffffff16565b6116f990919063ffffffff16565b6116f990919063ffffffff16565b8260010181905550600260009054906101000a900473ffffffffffffffffffffffffffffffffffffffff1673ffffffffffffffffffffffffffffffffffffffff1663a9059cbb33856040518363ffffffff1660e01b815260040161087d929190611ab4565b602060405180830381600087803b15801561089757600080fd5b505af11580156108ab573d6000803e3d6000fd5b505050506040513d601f19601f820116820180604052508101906108cf9190611866565b61090e576040517f08c379a000000000000000000000000000000000000000000000000000000000815260040161090590611af8565b60405180910390fd5b3373ffffffffffffffffffffffffffffffffffffffff167f884edad9ce6fa2440d8a54cc123490eb96d2768479d49ff9c7366125a9424364846040516109549190611bf8565b60405180910390a2505050565b600080600160008473ffffffffffffffffffffffffffffffffffffffff1673ffffffffffffffffffffffffffffffffffffffff168152602001908152602001600020905060006008549050600754421180156109c1575060055460075411155b80156109d05750600060045414155b15610a655760006005544211156109eb5760055490506109ef565b4290505b6000610a06600754836116cd90919063ffffffff16565b90506000610a1f600654836116e390919063ffffffff16565b9050610a5f610a50600454610a4264e8d4a51000856116e390919063ffffffff16565b6116f990919063ffffffff16565b8561170f90919063ffffffff16565b93505050505b610abe8260010154610ab062989680610aa264e8d4a51000610a948789600001546116e390919063ffffffff16565b6116f990919063ffffffff16565b6116f990919063ffffffff16565b6116cd90919063ffffffff16565b92505050919050565b60085481565b6007544211610adb57610bb0565b60006004541480610aef5750600554600754115b15610b005742600781905550610bb0565b6000600554421115610b16576005549050610b1a565b4290505b6000610b31600754836116cd90919063ffffffff16565b90506000610b4a600654836116e390919063ffffffff16565b9050610b8c610b7b600454610b6d64e8d4a51000856116e390919063ffffffff16565b6116f990919063ffffffff16565b60085461170f90919063ffffffff16565b60088190555042600781905550600554421115610bac5760006006819055505b5050505b565b6000600160003373ffffffffffffffffffffffffffffffffffffffff1673ffffffffffffffffffffffffffffffffffffffff1681526020019081526020016000209050600081600001541415610c085750610dfb565b610c10610acd565b6000610c6d8260010154610c5f62989680610c5164e8d4a51000610c4360085489600001546116e390919063ffffffff16565b6116f990919063ffffffff16565b6116f990919063ffffffff16565b6116cd90919063ffffffff16565b9050600360009054906101000a900473ffffffffffffffffffffffffffffffffffffffff1673ffffffffffffffffffffffffffffffffffffffff1663a9059cbb33836040518363ffffffff1660e01b8152600401610ccc929190611ab4565b602060405180830381600087803b158015610ce657600080fd5b505af1158015610cfa573d6000803e3d6000fd5b505050506040513d601f19601f82011682018060405250810190610d1e9190611866565b610d5d576040517f08c379a0000000000000000000000000000000000000000000000000000000008152600401610d5490611bd8565b60405180910390fd5b3373ffffffffffffffffffffffffffffffffffffffff167fba8de60c3403ec381d1d484652ea1980e3c3e56359195c92525bff4ce47ad98e82604051610da39190611bf8565b60405180910390a2610df062989680610de264e8d4a51000610dd460085487600001546116e390919063ffffffff16565b6116f990919063ffffffff16565b6116f990919063ffffffff16565b826001018190555050505b565b610e056116c5565b73ffffffffffffffffffffffffffffffffffffffff16610e23610e8b565b73ffffffffffffffffffffffffffffffffffffffff1614610e79576040517f08c379a0000000000000000000000000000000000000000000000000000000008152600401610e7090611b98565b60405180910390fd5b610e836000611725565b565b60045481565b60008060009054906101000a900473ffffffffffffffffffffffffffffffffffffffff16905090565b60065481565b6000806000806005544211610efb57610ede426005546116cd90919063ffffffff16565b9250610ef8629896806006546116f990919063ffffffff16565b93505b600160003373ffffffffffffffffffffffffffffffffffffffff1673ffffffffffffffffffffffffffffffffffffffff168152602001908152602001600020600001549150610f4933610961565b905090919293565b6000600160003373ffffffffffffffffffffffffffffffffffffffff1673ffffffffffffffffffffffffffffffffffffffff1681526020019081526020016000209050610f9c610acd565b6000816000015411156111465760006110068260010154610ff862989680610fea64e8d4a51000610fdc60085489600001546116e390919063ffffffff16565b6116f990919063ffffffff16565b6116f990919063ffffffff16565b6116cd90919063ffffffff16565b9050600360009054906101000a900473ffffffffffffffffffffffffffffffffffffffff1673ffffffffffffffffffffffffffffffffffffffff1663a9059cbb33836040518363ffffffff1660e01b8152600401611065929190611ab4565b602060405180830381600087803b15801561107f57600080fd5b505af1158015611093573d6000803e3d6000fd5b505050506040513d601f19601f820116820180604052508101906110b79190611866565b6110f6576040517f08c379a00000000000000000000000000000000000000000000000000000000081526004016110ed90611bd8565b60405180910390fd5b3373ffffffffffffffffffffffffffffffffffffffff167fba8de60c3403ec381d1d484652ea1980e3c3e56359195c92525bff4ce47ad98e8260405161113c9190611bf8565b60405180910390a2505b61115d82826000015461170f90919063ffffffff16565b816000018190555061117a8260045461170f90919063ffffffff16565b6004819055506111c5629896806111b764e8d4a510006111a960085486600001546116e390919063ffffffff16565b6116f990919063ffffffff16565b6116f990919063ffffffff16565b8160010181905550600260009054906101000a900473ffffffffffffffffffffffffffffffffffffffff1673ffffffffffffffffffffffffffffffffffffffff166323b872dd3330856040518463ffffffff1660e01b815260040161122c93929190611a7d565b602060405180830381600087803b15801561124657600080fd5b505af115801561125a573d6000803e3d6000fd5b505050506040513d601f19601f8201168201806040525081019061127e9190611866565b6112bd576040517f08c379a00000000000000000000000000000000000000000000000000000000081526004016112b490611b38565b60405180910390fd5b3373ffffffffffffffffffffffffffffffffffffffff167fe1fffcc4923d04b559f4d29a8bfc6cda04eb5b0d3c460751c2402c5c5cc9109c836040516113039190611bf8565b60405180910390a25050565b600260009054906101000a900473ffffffffffffffffffffffffffffffffffffffff1681565b60055481565b6113436116c5565b73ffffffffffffffffffffffffffffffffffffffff16611361610e8b565b73ffffffffffffffffffffffffffffffffffffffff16146113b7576040517f08c379a00000000000000000000000000000000000000000000000000000000081526004016113ae90611b98565b60405180910390fd5b600073ffffffffffffffffffffffffffffffffffffffff168173ffffffffffffffffffffffffffffffffffffffff161415611427576040517f08c379a000000000000000000000000000000000000000000000000000000000815260040161141e90611b18565b60405180910390fd5b61143081611725565b50565b600360009054906101000a900473ffffffffffffffffffffffffffffffffffffffff1681565b60075481565b6114676116c5565b73ffffffffffffffffffffffffffffffffffffffff16611485610e8b565b73ffffffffffffffffffffffffffffffffffffffff16146114db576040517f08c379a00000000000000000000000000000000000000000000000000000000081526004016114d290611b98565b60405180910390fd5b600554421161151f576040517f08c379a000000000000000000000000000000000000000000000000000000000815260040161151690611b78565b60405180910390fd5b611527610acd565b61154f61154062015180836116e390919063ffffffff16565b4261170f90919063ffffffff16565b600581905550611592620151806115848361157662989680876116e390919063ffffffff16565b6116f990919063ffffffff16565b6116f990919063ffffffff16565b600681905550600360009054906101000a900473ffffffffffffffffffffffffffffffffffffffff1673ffffffffffffffffffffffffffffffffffffffff166323b872dd3330856040518463ffffffff1660e01b81526004016115f793929190611a7d565b602060405180830381600087803b15801561161157600080fd5b505af1158015611625573d6000803e3d6000fd5b505050506040513d601f19601f820116820180604052508101906116499190611866565b611688576040517f08c379a000000000000000000000000000000000000000000000000000000000815260040161167f90611bd8565b60405180910390fd5b7f035a6817755d9d163087d4649b27315908b801d1f5e33071a44f1fc0f7a871b382826040516116b9929190611c13565b60405180910390a15050565b600033905090565b600081836116db9190611d73565b905092915050565b600081836116f19190611d19565b905092915050565b600081836117079190611ce8565b905092915050565b6000818361171d9190611c92565b905092915050565b60008060009054906101000a900473ffffffffffffffffffffffffffffffffffffffff169050816000806101000a81548173ffffffffffffffffffffffffffffffffffffffff021916908373ffffffffffffffffffffffffffffffffffffffff1602179055508173ffffffffffffffffffffffffffffffffffffffff168173ffffffffffffffffffffffffffffffffffffffff167f8be0079c531659141344cd1fd0a4f28419497f9722a3daafe3b4186f6b6457e060405160405180910390a35050565b6000813590506117f88161202b565b92915050565b60008151905061180d81612042565b92915050565b60008135905061182281612059565b92915050565b60008151905061183781612059565b92915050565b60006020828403121561184f57600080fd5b600061185d848285016117e9565b91505092915050565b60006020828403121561187857600080fd5b6000611886848285016117fe565b91505092915050565b6000602082840312156118a157600080fd5b60006118af84828501611813565b91505092915050565b6000602082840312156118ca57600080fd5b60006118d884828501611828565b91505092915050565b600080604083850312156118f457600080fd5b600061190285828601611813565b925050602061191385828601611813565b9150509250929050565b61192681611da7565b82525050565b61193581611def565b82525050565b6000611948602183611c81565b915061195382611e71565b604082019050919050565b600061196b602683611c81565b915061197682611ec0565b604082019050919050565b600061198e601b83611c81565b915061199982611f0f565b602082019050919050565b60006119b1601e83611c81565b91506119bc82611f38565b602082019050919050565b60006119d4603083611c81565b91506119df82611f61565b604082019050919050565b60006119f7602083611c81565b9150611a0282611fb0565b602082019050919050565b6000611a1a601a83611c81565b9150611a2582611fd9565b602082019050919050565b6000611a3d601783611c81565b9150611a4882612002565b602082019050919050565b611a5c81611de5565b82525050565b6000602082019050611a77600083018461191d565b92915050565b6000606082019050611a92600083018661191d565b611a9f602083018561191d565b611aac6040830184611a53565b949350505050565b6000604082019050611ac9600083018561191d565b611ad66020830184611a53565b9392505050565b6000602082019050611af2600083018461192c565b92915050565b60006020820190508181036000830152611b118161193b565b9050919050565b60006020820190508181036000830152611b318161195e565b9050919050565b60006020820190508181036000830152611b5181611981565b9050919050565b60006020820190508181036000830152611b71816119a4565b9050919050565b60006020820190508181036000830152611b91816119c7565b9050919050565b60006020820190508181036000830152611bb1816119ea565b9050919050565b60006020820190508181036000830152611bd181611a0d565b9050919050565b60006020820190508181036000830152611bf181611a30565b9050919050565b6000602082019050611c0d6000830184611a53565b92915050565b6000604082019050611c286000830185611a53565b611c356020830184611a53565b9392505050565b6000608082019050611c516000830187611a53565b611c5e6020830186611a53565b611c6b6040830185611a53565b611c786060830184611a53565b95945050505050565b600082825260208201905092915050565b6000611c9d82611de5565b9150611ca883611de5565b9250827fffffffffffffffffffffffffffffffffffffffffffffffffffffffffffffffff03821115611cdd57611cdc611e13565b5b828201905092915050565b6000611cf382611de5565b9150611cfe83611de5565b925082611d0e57611d0d611e42565b5b828204905092915050565b6000611d2482611de5565b9150611d2f83611de5565b9250817fffffffffffffffffffffffffffffffffffffffffffffffffffffffffffffffff0483118215151615611d6857611d67611e13565b5b828202905092915050565b6000611d7e82611de5565b9150611d8983611de5565b925082821015611d9c57611d9b611e13565b5b828203905092915050565b6000611db282611dc5565b9050919050565b60008115159050919050565b600073ffffffffffffffffffffffffffffffffffffffff82169050919050565b6000819050919050565b6000611dfa82611e01565b9050919050565b6000611e0c82611dc5565b9050919050565b7f4e487b7100000000000000000000000000000000000000000000000000000000600052601160045260246000fd5b7f4e487b7100000000000000000000000000000000000000000000000000000000600052601260045260246000fd5b7f5374616b65723a206465706f736974207769746864726177616c206661696c6560008201527f6400000000000000000000000000000000000000000000000000000000000000602082015250565b7f4f776e61626c653a206e6577206f776e657220697320746865207a65726f206160008201527f6464726573730000000000000000000000000000000000000000000000000000602082015250565b7f5374616b65723a207472616e7366657246726f6d206661696c65640000000000600082015250565b7f5374616b65723a20726577617264207472616e73666572206661696c65640000600082015250565b7f5374616b65723a2063616e2774206164642072657761726473206265666f726560008201527f20706572696f642066696e697368656400000000000000000000000000000000602082015250565b7f4f776e61626c653a2063616c6c6572206973206e6f7420746865206f776e6572600082015250565b7f5374616b65723a2062616c616e6365206e6f7420656e6f756768000000000000600082015250565b7f5374616b65723a207472616e73666572206661696c6564000000000000000000600082015250565b61203481611da7565b811461203f57600080fd5b50565b61204b81611db9565b811461205657600080fd5b50565b61206281611de5565b811461206d57600080fd5b5056fea2646970667358221220e960679ac5c4bd77cf984a9530fa42acdb86b13c868cd315415143713d74835d64736f6c63430008040033",
  "immutableReferences": {},
  "source": "// SPDX-License-Identifier: UNLICENSED\n\npragma solidity ^0.8.4;\n\nimport \"@openzeppelin/contracts/token/ERC20/IERC20.sol\";\nimport \"@openzeppelin/contracts/utils/math/SafeMath.sol\";\nimport \"@openzeppelin/contracts/access/Ownable.sol\";\n\n\n/*\n\n\n    Staker contract for ETB Projects #2\n    ===================================\n\n    Based on Sushiswap MasterChef.\n    The basic idea is to keep an accumulating pool \"share balance\" (accumulatedRewardPerShare):\n    Every unit of this balance represents the proportionate reward of a single wei which is staked in the contract.\n    This balance is updated in updateRewards() (which is called in each deposit/withdraw/claim)\n        according to the time passed from the last update and in proportion to the total tokens staked in the pool.\n        Basically: accumulatedRewardPerShare = accumulatedRewardPerShare + (seconds passed from last update) * (rewards per second) / (total tokens staked)\n    We also save for each user an accumulation of how much he has already claimed so far.\n    And so to calculate a user's rewards, we basically just need to calculate:\n    userRewards = accumulatedRewardPerShare * (user's currently staked tokens) - (user's rewards already claimed) \n    And updated the user's rewards already claimed accordingly.\n\n\n*/\ncontract Staker is Ownable {\n    using SafeMath for uint256;\n\n    struct UserInfo {\n        uint256 deposited;\n        uint256 rewardsAlreadyConsidered;\n    }\n\n    mapping (address => UserInfo) users;\n    \n    IERC20 public depositToken; // eg. PancakeSwap ETB LP token\n    IERC20 public rewardToken;  // eg. ETB\n\n    // We are not using depositToken.balanceOf in order to prevent DOS attacks (attacker can make the total tokens staked very large)\n    // and to add a skim() functionality with which the owner can collect tokens which were transferred outside the stake mechanism.\n    uint256 public totalStaked;\n\n    uint256 public rewardPeriodEndTimestamp;\n    uint256 public rewardPerSecond; // multiplied by 1e7, to make up for division by 24*60*60\n\n    uint256 public lastRewardTimestamp;\n    uint256 public accumulatedRewardPerShare; // multiplied by 1e12, same as MasterChef\n\n    event AddRewards(uint256 amount, uint256 lengthInDays);\n    event ClaimReward(address indexed user, uint256 amount);\n    event Deposit(address indexed user, uint256 amount);\n    event Withdraw(address indexed user, uint256 amount);\n    event Skim(uint256 amount);\n    \n\n    constructor(address _depositToken, address _rewardToken) {\n        depositToken = IERC20(_depositToken);\n        rewardToken = IERC20(_rewardToken);\n    }\n\n    // Owner should have approved ERC20 before.\n    function addRewards(uint256 _rewardsAmount, uint256 _lengthInDays)\n    external onlyOwner {\n        require(block.timestamp > rewardPeriodEndTimestamp, \"Staker: can't add rewards before period finished\");\n        updateRewards();\n        rewardPeriodEndTimestamp = block.timestamp.add(_lengthInDays.mul(24*60*60));\n        rewardPerSecond = _rewardsAmount.mul(1e7).div(_lengthInDays).div(24*60*60);\n        require(rewardToken.transferFrom(msg.sender, address(this), _rewardsAmount), \"Staker: transfer failed\");\n        emit AddRewards(_rewardsAmount, _lengthInDays);\n    }\n\n    // Main function to keep a balance of the rewards.\n    // Is called before each user action (stake, unstake, claim).\n    // See top of file for high level description.\n    function updateRewards()\n    public {\n        // If no staking period active, or already updated rewards after staking ended, or nobody staked anything - nothing to do\n        if (block.timestamp <= lastRewardTimestamp) {\n            return;\n        }\n        if ((totalStaked == 0) || lastRewardTimestamp > rewardPeriodEndTimestamp) {\n            lastRewardTimestamp = block.timestamp;\n            return;\n        }\n\n        // If staking period ended, calculate time delta based on the time the staking ended (and not after)\n        uint256 endingTime;\n        if (block.timestamp > rewardPeriodEndTimestamp) {\n            endingTime = rewardPeriodEndTimestamp;\n        } else {\n            endingTime = block.timestamp;\n        }\n        uint256 secondsSinceLastRewardUpdate = endingTime.sub(lastRewardTimestamp);\n        uint256 totalNewReward = secondsSinceLastRewardUpdate.mul(rewardPerSecond); // For everybody in the pool\n        // The next line will calculate the reward for each staked token in the pool.\n        //  So when a specific user will claim his rewards,\n        //  we will basically multiply this var by the amount the user staked.\n        accumulatedRewardPerShare = accumulatedRewardPerShare.add(totalNewReward.mul(1e12).div(totalStaked));\n        lastRewardTimestamp = block.timestamp;\n        if (block.timestamp > rewardPeriodEndTimestamp) {\n            rewardPerSecond = 0;\n        }\n    }\n\n    // Will deposit specified amount and also send rewards.\n    // User should have approved ERC20 before.\n    function deposit(uint256 _amount)\n    external {\n        UserInfo storage user = users[msg.sender];\n        updateRewards();\n        // Send reward for previous deposits\n        if (user.deposited > 0) {\n            uint256 pending = user.deposited.mul(accumulatedRewardPerShare).div(1e12).div(1e7).sub(user.rewardsAlreadyConsidered);\n            require(rewardToken.transfer(msg.sender, pending), \"Staker: transfer failed\");\n            emit ClaimReward(msg.sender, pending);\n        }\n        user.deposited = user.deposited.add(_amount);\n        totalStaked = totalStaked.add(_amount);\n        user.rewardsAlreadyConsidered = user.deposited.mul(accumulatedRewardPerShare).div(1e12).div(1e7);\n        require(depositToken.transferFrom(msg.sender, address(this), _amount), \"Staker: transferFrom failed\");\n        emit Deposit(msg.sender, _amount);\n    }\n    \n\n    // Will withdraw the specified amount and also send rewards.\n    function withdraw(uint256 _amount)\n    external {\n        UserInfo storage user = users[msg.sender];\n        require(user.deposited >= _amount, \"Staker: balance not enough\");\n        updateRewards();\n        // Send reward for previous deposits\n        uint256 pending = user.deposited.mul(accumulatedRewardPerShare).div(1e12).div(1e7).sub(user.rewardsAlreadyConsidered);\n        require(rewardToken.transfer(msg.sender, pending), \"Staker: reward transfer failed\");\n        emit ClaimReward(msg.sender, pending);\n        user.deposited = user.deposited.sub(_amount);\n        totalStaked = totalStaked.sub(_amount);\n        user.rewardsAlreadyConsidered = user.deposited.mul(accumulatedRewardPerShare).div(1e12).div(1e7);\n        require(depositToken.transfer(msg.sender, _amount), \"Staker: deposit withdrawal failed\");\n        emit Withdraw(msg.sender, _amount);\n    }\n\n    // Will just send rewards.\n    function claim()\n    external {\n        UserInfo storage user = users[msg.sender];\n        if (user.deposited == 0)\n            return;\n\n        updateRewards();\n        uint256 pending = user.deposited.mul(accumulatedRewardPerShare).div(1e12).div(1e7).sub(user.rewardsAlreadyConsidered);\n        require(rewardToken.transfer(msg.sender, pending), \"Staker: transfer failed\");\n        emit ClaimReward(msg.sender, pending);\n        user.rewardsAlreadyConsidered = user.deposited.mul(accumulatedRewardPerShare).div(1e12).div(1e7);\n        \n    }\n\n    // Will collect depositTokens (LP tokens) that were sent to the contract\n    //  Outside of the staking mechanism.\n    function skim()\n    external onlyOwner {\n        uint256 depositTokenBalance = depositToken.balanceOf(address(this));\n        if (depositTokenBalance > totalStaked) {\n            uint256 amount = depositTokenBalance.sub(totalStaked);\n            require(depositToken.transfer(msg.sender, amount), \"Staker: transfer failed\");\n            emit Skim(amount);\n        }\n    }\n\n    /* \n        ####################################################\n        ################## View functions ##################\n        ####################################################\n\n    */\n\n    // Return the user's pending rewards.\n    function pendingRewards(address _user)\n    public view returns (uint256) {\n        UserInfo storage user = users[_user];\n        uint256 accumulated = accumulatedRewardPerShare;\n        if (block.timestamp > lastRewardTimestamp && lastRewardTimestamp <= rewardPeriodEndTimestamp && totalStaked != 0) {\n            uint256 endingTime;\n            if (block.timestamp > rewardPeriodEndTimestamp) {\n                endingTime = rewardPeriodEndTimestamp;\n            } else {\n                endingTime = block.timestamp;\n            }\n            uint256 secondsSinceLastRewardUpdate = endingTime.sub(lastRewardTimestamp);\n            uint256 totalNewReward = secondsSinceLastRewardUpdate.mul(rewardPerSecond);\n            accumulated = accumulated.add(totalNewReward.mul(1e12).div(totalStaked));\n        }\n        return user.deposited.mul(accumulated).div(1e12).div(1e7).sub(user.rewardsAlreadyConsidered);\n    }\n\n    // Returns misc details for the front end.\n    function getFrontendView()\n    external view returns (uint256 _rewardPerSecond, uint256 _secondsLeft, uint256 _deposited, uint256 _pending) {\n        if (block.timestamp <= rewardPeriodEndTimestamp) {\n            _secondsLeft = rewardPeriodEndTimestamp.sub(block.timestamp); \n            _rewardPerSecond = rewardPerSecond.div(1e7);\n        } // else, anyway these values will default to 0\n        _deposited = users[msg.sender].deposited;\n        _pending = pendingRewards(msg.sender);\n    }\n}",
  "sourcePath": "/home/jeffrey/Documents/_projects/react-projects/Arbicrypt-fixed/contracts/Staker.sol",
  "compiler": {
    "name": "solc",
    "version": "0.8.4+commit.c7e474f2.Emscripten.clang"
  },
  "schemaVersion": "3.4.7",
  "updatedAt": "2022-05-09T01:40:51.859Z",
  "devdoc": {
    "kind": "dev",
    "methods": {
      "owner()": {
        "details": "Returns the address of the current owner."
      },
      "renounceOwnership()": {
        "details": "Leaves the contract without owner. It will not be possible to call `onlyOwner` functions anymore. Can only be called by the current owner. NOTE: Renouncing ownership will leave the contract without an owner, thereby removing any functionality that is only available to the owner."
      },
      "transferOwnership(address)": {
        "details": "Transfers ownership of the contract to a new account (`newOwner`). Can only be called by the current owner."
      }
    },
    "version": 1
  },
  "userdoc": {
    "kind": "user",
    "methods": {},
    "version": 1
  }
}